:100000000C94D5090C94060A0C94060A0C94060A62
:100010000C94060A0C94060A0C94060A0C94060A20
:100020000C94060A0C94060A0C94060A0C94060A10
:100030000C94060A0C94060A0C94060A0C94060A00
:100040000C94060A0C949F440C94060A0C94060A1D
:100050000C94060A0C94060A0C94F9530C9440571D
:100060000C94060A0C9496320C94060A0C94060A18
:100070000C94060A0C94060A0C94060A0C94060AC0
:100080000C94060A0C94060A0C94060A0C94060AB0
:100090000C94060A0C94060A0C94060A0C94125648
:1000A0000C94060A0C94060A0C94060A0C94060A90
:1000B0000C94060A0C94060A0C94060A0C94060A80
:1000C0000C94060A0C94060A0C94060A0C94060A70
:1000D0000C94060A0C94060A0C94060A0C94060A60
:1000E0000C94060A535460547C548954A354B0545D
:1000F000CA54CC54CE54D054D854635868586D5810
:1001000077588158FA588B5893589B58A558AF5830
:10011000B958C858D258FA58DC58E658F0581B5904
:100120001E590D59115917595559225926592C59EB
:10013000305934593A593E594259555948594C59F0
:100140005059084AD73B3BCE016E84BCBFFDC12F3E
:100150003D6C74319ABD56833DDA3D00C77F11BEB8
:10016000D9E4BB4C3E916BAAAABE000000803F05BB
:10017000A84CCDB2D44EB93836A9020C50B99186EC
:1001800088083CA6AAAA2ABE000000803F00486159
:100190007264636F6465642044656661756C742085
:1001A00053657474696E6773204C6F616465640095
:1001B00053746F7265642073657474696E6773201D
:1001C0007265747269657665640020440020490098
:1001D0002020204D33303120500050494420736599
:1001E0007474696E67733A00205A00205900202009
:1001F0004D323036205800486F6D65206F6666734B
:10020000657420286D6D293A00204500205A002091
:10021000580020420020540020204D323035205319
:1002200000416476616E6365642076617269616223
:100230006C65733A20533D4D696E20666565647246
:1002400061746520286D6D2F73292C20543D4D69F4
:100250006E2074726176656C206665656472617487
:100260006520286D6D2F73292C20423D6D696E69C4
:100270006D756D207365676D656E742074696D654D
:1002800020286D73292C20583D6D6178696D756D3E
:10029000205859206A65726B20286D6D2F73292CA8
:1002A00020205A3D6D6178696D756D205A206A6510
:1002B000726B20286D6D2F73292C2020453D6D61B8
:1002C00078696D756D2045206A65726B20286D6DAB
:1002D0002F73290020540020204D32303420530049
:1002E000416363656C65726174696F6E3A20533D5A
:1002F000616363656C65726174696F6E2C20543D37
:100300007265747261637420616363656C657261A8
:1003100074696F6E00204500205A0020590020208B
:100320004D3230312058004D6178696D756D204136
:100330006363656C65726174696F6E20286D6D2FE3
:100340007332293A00204500205A0020590020200D
:100350004D3230332058004D6178696D756D2066DF
:10036000656564726174657320286D6D2F73293A19
:1003700000205A0020590020204D333638205800E4
:100380004D414E55414C5F484F4D455F504F5320B6
:10039000666163746F72733A00205A00205900201E
:1003A000204D3336372058004441524D5F4F46466A
:1003B00053455420666163746F72733A002048009D
:1003C00020430020530020204D3336362042004287
:1003D0003D4C6F77657261726D20286D6D292C2000
:1003E000533D557070657261726D20286D6D292CBA
:1003F00020433D43656E6365724F66667365722088
:10040000286D6D292C20483D486561644F666673F0
:10041000657420286D6D2900204500205A00205960
:100420000020204D393220580053746570732070BD
:10043000657220756E69743A0053657474696E67ED
:10044000732053746F726564005072696E746572C4
:100450002073746F707065642064756520746F20FC
:100460006572726F72732E204669782074686520F9
:100470006572726F7220616E6420757365204D39EC
:10048000393920746F20726573746172742E20285C
:1004900054656D7065726174757265206973207240
:1004A000657365742E2053657420697420616674C9
:1004B00065722072657374617274696E6729005089
:1004C00072696E7465722068616C7465642E206B4D
:1004D000696C6C28292063616C6C656421006F6B0A
:1004E00000526573656E643A20002200556E6B6E93
:1004F0006F776E20636F6D6D616E643A2022007AB3
:100500005F6D61783A20007A5F6D696E3A200079FC
:100510005F6D61783A2000795F6D696E3A200078EE
:100520005F6D61783A2000785F6D696E3A20002037
:100530005A5F616E676C650020595F616E676C651C
:100540003A0020585F616E676C653A00205A3A00A5
:1005500020593A0020436F756E7420583A200020CD
:10056000453A00205A3A0020593A00583A00464984
:10057000524D574152455F4E414D453A446F626F6F
:10058000742056312E302E323B20537072696E74B7
:1005900065722F6772626C206D617368757020667A
:1005A0006F722067656E36204649524D574152455D
:1005B0005F55524C3A68747470733A2F2F676974A0
:1005C0006875622E636F6D2F4D61726C696E46693E
:1005D000726D776172652F4D61726C696E20505239
:1005E0004F544F434F4C5F56455253494F4E3A314B
:1005F0002E30204D414348494E455F545950453AAD
:10060000446F626F742045585452554445525F43BD
:100610004F554E543A3120555549443A30303030D8
:10062000303030302D303030302D303030302D30D3
:100630003030302D303030303030303030303030BD
:100640000A0020423A0020453A00543A0020573A26
:100650000020453A00543A0057002042403A0057E3
:100660000020403A00202F003A00205400202F00A4
:1006700020423A00202F006F6B20543A0025692059
:100680006D696E2C20256920736563005072696E58
:100690007465722073746F70706564206475652072
:1006A000746F206572726F72732E204669782074A1
:1006B0006865206572726F7220616E642075736563
:1006C000204D39393920746F2072657374617274EA
:1006D0002E202854656D706572617475726520698D
:1006E000732072657365742E2053657420697420BD
:1006F00061667465722072657374617274696E6785
:1007000029004E6F204C696E65204E756D626572D2
:10071000207769746820636865636B73756D2C203E
:100720004C617374204C696E653A20004E6F204313
:100730006865636B73756D2077697468206C696E8A
:1007400065206E756D6265722C204C617374204C4F
:10075000696E653A2000636865636B73756D206D23
:1007600069736D617463682C204C617374204C69EB
:100770006E653A20004C696E65204E756D6265723B
:10078000206973206E6F74204C617374204C696E05
:1007900065204E756D6265722B312C204C6173742F
:1007A000204C696E653A20004D31313000202050D8
:1007B0006C616E6E657242756666657242797465CB
:1007C000733A20002046726565204D656D6F727921
:1007D0003A200041707220203820323031380043F6
:1007E0006F6D70696C65643A2000286E6F6E652CC1
:1007F0002064656661756C7420636F6E6669672935
:1008000000207C20417574686F723A20004170723C
:1008100020203820323031382030393A31373A34DC
:100820003900204C61737420557064617465643ABA
:1008300020002000312E302E3000526F626F744144
:10084000524D0020536F6674776172652052657354
:10085000657400205761746368646F672052657324
:100860006574002042726F776E206F757420526538
:10087000736574002045787465726E616C205265F2
:1008800073657400506F7765725570007374617290
:1008900074000101010000404000004040000040A1
:1008A00040000048430000484366E660430000B053
:1008B000C1000050C2CDCCCC3D00004843000048F0
:1008C00043000061430000000000000000CDCCCCDC
:1008D0003D6563686F3A004572726F723A00205A44
:1008E0003A0020593A0020583A00656E6473746FDC
:1008F0007073206869743A200024F4D43050C38E99
:1009000020C2A24017828B7011127A910D816CD98E
:100910000AA861E108C7586607615143061E4B5D8E
:1009200005C145A7041A411104093D9803713931E5
:10093000034036DB0265339102D4305402802E1D11
:1009400002632CEE01752AC501B028A00110278191
:10095000018F2564012B244B01E0223401AC211FBF
:10096000018D200D01801FFC00841EED00971DDF0E
:1009700000B81CD200E61BC600201BBC00641AB2E3
:1009800000B219A8000A19A0006A189900D117919D
:100990000040178B00B516840031167E00B3157920
:1009A000003A157300C7146F0058146A00EE1366FE
:1009B000008813630025135E00C7125B006C12579A
:1009C0000015125400C111510070114F0021114B3C
:1009D00000D61049008D1047004610440002104216
:1009E00000C00F4000800F3E00420F3C00060F3B4E
:1009F00000CB0E3800930E37005C0E3500270E3406
:100A000000F30D3200C10D3100900D3000600D2E4D
:100A100000320D2D00050D2C00D90C2B00AE0C2939
:100A200000850C29005C0C2700350C27000E0C26D5
:100A300000E80B2400C40B2400A00B23007D0B2333
:100A4000005A0B2100390B2100180B2000F80A1F57
:100A500000D90A1E00BB0A1E009D0A1D00800A1D47
:100A600000630A1C00470A1B002C0A1B00110A1A0B
:100A700000F7091A00DD091900C4091900AB0919AA
:100A800000920917007B091800630917004C09162A
:100A90000036091600200916000A091500F5081588
:100AA00000E0081400CC081400B8081400A40814CE
:100AB00000900813007D0812006B081300580812FC
:100AC0000046081200340811002308110012081112
:100AD0000001081100F0071000E0071000D0071017
:100AE00000C0071000B0070F00A107100091070E0B
:100AF0000083070F0074070F0065070E0057070EED
:100B00000049070E003B070D002E070E0020070DC1
:100B10000013070D0006070D00F9060C00ED060D89
:100B200000E0060C00D4060C00C8060C00BC060C45
:100B300000B0060C00A4060B0099060C008D060BF5
:100B40000082060B0077060B006C060B0061060A9C
:100B50000057060B004C060A0042060A0038060A37
:100B6000002E060A0024060A001A060A00100609CA
:100B70000007060A00FD050900F4050900EB050958
:100B800000E2050900D9050900D0050900C70509DB
:100B900000BE050900B5050800AD050800A505095A
:100BA000009C050800940508008C050800840508D1
:100BB000007C050800740508006C05070065050841
:100BC000005D050700560508004E050700470507AC
:100BD000004005080038050700310507002A050711
:100BE00000230507001C050600160507000F050772
:100BF000000805060002050700FB040600F50407CF
:100C000000EE040600E8040600E2040700DB040628
:100C100000D5040600CF040600C9040600C304067C
:100C200000BD040600B7040600B1040500AC0406CC
:100C300000A6040600A00405009B04060095040518
:100C400000900406008A040500850405008004065F
:100C5000007A04050075040500700405006B0405A6
:100C60000066040500610405005C040500570405E6
:100C700000520405004D0405004804050043040526
:100C8000003E0404003A0405003504050030040465
:100C9000002C04050027040400230405001E04049E
:100CA000001A04040016040500110404000D0404D5
:100CB00000090405000404040000040400FC03040B
:100CC00000F8030400F4030400F0030400EC030440
:100CD00000E8030400E4030400E0030400DC030470
:100CE00000D8030400D4030400D0030400CC0304A0
:100CF00000C8030300C503030024F404D9201BC467
:100D00000C5C0E9804C4095F0265077101F405F9D3
:100D100000FB04B30048048700C103690058035571
:100D20000003034500BE023A008402310053022A48
:100D3000002902250004022000E4011C00C801195A
:100D400000AF011700980114008401130071011015
:100D5000006101100051010E0043010D0036010B2E
:100D6000002B010B0020010B00150109000C0109EB
:100D70000003010800FB000800F3000800EB000777
:100D800000E4000600DE000600D8000600D20006DF
:100D900000CC000500C7000500C2000500BD00042E
:100DA00000B9000400B5000400B1000400AD000467
:100DB00000A9000400A5000300A20003009F000496
:100DC000009B0003009800030095000200930003BD
:100DD00000900003008D0002008B000300880002D9
:100DE000008600020084000300810002007F0002F0
:100DF000007D0002007B0002007900020077000104
:100E0000007600020074000200720001007100020E
:100E1000006F0002006D0001006C0002006A00011A
:100E20000069000200670001006600010065000122
:100E30000064000200620001006100010060000126
:100E4000005F0002005D0001005C0001005B00012A
:100E5000005A00010059000100580001005700012C
:100E6000005600010055000100540001005300002D
:100E70000053000100520001005100010050000128
:100E8000004F0001004E0000004E0001004D000127
:100E9000004C0001004B0000004B0001004A000123
:100EA000004900010048000000480001004700011F
:100EB000004600000046000100450000004500011A
:100EC0000044000100430000004300010042000014
:100ED000004200010041000000410001004000010B
:100EE000003F0000003F0001003E0000003E000106
:100EF000003D0000003D0001003C0000003C0000FF
:100F0000003C0001003B0000003B0001003A0000F3
:100F1000003A0001003900000039000100380000EB
:100F200000380000003800010037000000370001E1
:100F300000360000003600000036000100350000D9
:100F400000350000003500010034000000340000CE
:100F500000340001003300000033000000330001C2
:100F600000320000003200000032000100310000B9
:100F700000310000003100010030000000300000AE
:100F800000300001002F0000002F0000002F0000A3
:100F9000002F0001002E0000002E0000002E000196
:100FA000002D0000002D0000002D0000002D00018C
:100FB000002C0000002C0000002C0000002C000180
:100FC000002B0000002B0000002B0000002B000174
:100FD000002A0000002A0000002A0000002A000168
:100FE000002900000029000000290000002900005D
:100FF000002900010028000000280000002800004F
:101000000028000000280001002700000027000041
:101010000027000000270000002700010026000034
:101020000026000000260000002600000026000127
:10103000002500000025000000250000002500001C
:10104000002500000025000100240000002400000D
:101050000024000000240000002400010023000000
:1010600000230000002300000023000000230000F4
:1010700000230000002300010022000000220000E5
:1010800000220000002200000022000000220001D7
:1010900000210000002100000021000000210000CC
:1010A00000210000002100000021000100200000BC
:1010B00000200000002000000020000000200000B0
:1010C000002000000020000000200001001F0000A0
:1010D000001F0000001F0000001F0000001F000094
:1010E000001F0000001F0001001E0000001E000085
:1010F000001E0000001E0000003A20457874727542
:10110000646572207377697463686564206F6666CE
:101110002E204D494E54454D5020747269676765C5
:101120007265642021003A20457874727564657296
:10113000207377697463686564206F66662E204D3E
:10114000415854454D5020747269676765726564F3
:10115000202100504944204175746F74756E6520DC
:1011600066696E69736865642120507574207468BF
:1011700065206C617374204B702C204B6920616E6C
:1011800064204B6420636F6E7374616E74732066A9
:10119000726F6D2061626F766520696E746F204397
:1011A0006F6E66696775726174696F6E2E68005044
:1011B0004944204175746F74756E65206661696C71
:1011C0006564212074696D656F75740020403A0074
:1011D0006F6B20543A006F6B20423A005049442014
:1011E0004175746F74756E65206661696C65642104
:1011F0002054656D706572617475726520746F6FCF
:10120000206869676800204B643A2000204B693AE7
:101210002000204B703A200020436C617373696397
:101220002050494420002054753A2000204B753A44
:101230002000206D61783A2000206D696E3A200010
:1012400020643A200020626961733A200000000A9D
:101250000B02090C0D0E080703040100000000003A
:10126000000000000000000000000000000000007E
:10127000000000000000000000121110000000003B
:10128000000000000000000000000000000000005E
:10129000000000010210202008081020401020400B
:1012A000800201020108040201010204081020402A
:1012B0008080402010080402018004020180402048
:1012C0001008040201080402010102040810204071
:1012D0008001020408102040800505050507050867
:1012E000080808020202020A0A08080404040401A9
:1012F00001010101010101030303030303030304CB
:101300000707070C0C0C0C0C0C0C0C02020202065A
:10131000060606060606060B0B0B0B0B0B0B0B004B
:101320000020002300260029002C002F003200009E
:101330000100000301060109010000220025002828
:10134000002B002E003100340002010000050108CE
:10135000010B0100002100240027002A002D00308D
:1013600000330001010000040107010A014E414E53
:10137000494E495459494E46CDCCCC3D0AD7233C21
:1013800017B7D13877CC2B329595E6241FB14F0A89
:10139000000020410000C84200401C4620BCBE4C5A
:1013A000CA1B0E5AAEC59D74E65511241FBECFEF61
:1013B000D1E2DEBFCDBF00E00CBF14E0A0E0B2E0A0
:1013C000E0E9F8EC00E00BBF02C007900D92AC36EC
:1013D000B107D9F72DE0ACE6B4E001C01D92A63EFE
:1013E000B207E1F713E1CAEAD3E100E006C02297B1
:1013F0000109FE010BBF0E944F5EC83AD10780E091
:101400000807A9F70E94ED590C9446640C9400005B
:10141000EF92FF920F931F93CF93DF931F92CDB75D
:10142000DEB78C017B01460FF70161917F01F80166
:101430008081918149830E948F63F801808191812D
:1014400001969183808349814E11EECF0F90DF91F9
:10145000CF911F910F91FF90EF900895EF92FF921F
:101460000F931F93CF93DF931F92CDB7DEB78C01FD
:101470007B01460FF8018081918149830E94876337
:10148000F70181937F01F801808191810196918319
:10149000808349814E11EECF0F90DF91CF911F9144
:1014A0000F91FF90EF9008950F931F93CF93DF93C9
:1014B000CDB7DEB768970FB6F894DEBF0FBECDBFCD
:1014C00080E390E3A0E3B0E08D839E83AF83B88791
:1014D00004E610E0188F0F8B44E0BE016B5F7F4F76
:1014E000CE01479695DF40E16AE57CE0CE01479664
:1014F0008FDF40E16AE67CE0CE01479689DF40E17C
:101500006AE47CE0CE01479683DF44E062E47CE05D
:10151000CE0147967DDF44E06EE37CE0CE01479646
:1015200077DF44E066E47CE0CE01479671DF44E07B
:101530006EE27CE0CE0147966BDF44E06AE77CE038
:10154000CE01479665DF44E06AE37CE0CE01479632
:101550005FDF44E066E37CE0CE01479659DF44E07C
:1015600062E37CE0CE01479653DF4CE068E776E02B
:10157000CE0147964DDF44E067E272E0CE01479628
:1015800047DF44E063E272E0CE01479641DF44E08A
:101590006FE172E0CE0147963BDF44E06BE172E021
:1015A000CE01479635DF4CE06FE072E0CE01479602
:1015B0002FDF4CE062E676E0CE01479629DF84EB30
:1015C00090E09E8B8D8B86E490E09C8B8B8B8FEFD5
:1015D00090E09A8B898B20EF30E0388B2F871E8725
:1015E0000D879C878B8742E0BE016B5E7F4FCE01EB
:1015F00047960EDF42E0BE016D5E7F4FCE014796FB
:1016000007DF42E0BE016F5E7F4FCE01479600DFED
:1016100042E0BE01615F7F4FCE014796F9DE42E0B6
:10162000BE01635F7F4FCE014796F2DE42E0BE010E
:10163000655F7F4FCE014796EBDE44E061E776E0E1
:10164000CE014796E5DE44E06AEA72E0CE014796B5
:10165000DFDE44E066EA72E0CE014796D9DE44E080
:1016600062EA72E0CE014796D3DE80E290E09A878C
:10167000898742E0BE01675F7F4FCE014796C8DE93
:101680004CE06BE272E0CE014796C2DE41E064E9D5
:1016900076E0CE014796BCDE44E063E672E0CE0120
:1016A0004796B6DE86E591E3A3E3B0E089839A83AB
:1016B000AB83BC83188F0F8B44E0BE016F5F7F4FFD
:1016C000CE014796A5DEE1EDF8E08491882341F054
:1016D0009091C00095FFFCCF8093C6003196F5CF66
:1016E000E9E3F4E08491882341F09091C00095FFF4
:1016F000FCCF8093C6003196F5CF8091C00085FF66
:10170000FCCF8AE08093C60068960FB6F894DEBFDF
:101710000FBECDBFDF91CF911F910F910895CF9351
:10172000DF93C1EDD8E0FE018491882341F09091D0
:10173000C00095FFFCCF8093C6003196F5CFE9E25B
:10174000F4E08491882341F09091C00095FFFCCF94
:101750008093C6003196F5CF8091C00085FFFCCF05
:101760008AE08093C600FE018491E1EDF8E08823D1
:1017700049F09091C00095FFFCCF8093C600319650
:101780008491F5CF40915A0C50915B0C60915C0CA8
:1017900070915D0C81E294E00E94CD1340915E0C4B
:1017A00050915F0C6091600C7091610C8EE194E03F
:1017B000F4D74091620C5091630C6091640C70916D
:1017C000650C8BE194E0E9D74091660C5091670C71
:1017D0006091680C7091690C88E194E0DED780918B
:1017E000C00085FFFCCF8AE08093C600FE01849193
:1017F000E1EDF8E0882349F09091C00095FFFCCF1F
:101800008093C60031968491F5CFEFECF3E084919C
:10181000882341F09091C00095FFFCCF8093C600D3
:101820003196F5CF8091C00085FFFCCF8AE0809390
:10183000C600FE018491E1EDF8E0882349F0909123
:10184000C00095FFFCCF8093C60031968491F5CF00
:1018500040912702509128026091290270912A023A
:1018600086EC93E09AD74091230250912402609134
:1018700025027091260283EC93E08FD740911F02DE
:1018800050912002609121027091220280EC93E03D
:1018900084D740911B0250911C0260911D027091EF
:1018A0001E028DEB93E079D78091C00085FFFCCFBD
:1018B0008AE08093C600FE018491E1EDF8E0882380
:1018C00049F09091C00095FFFCCF8093C6003196FF
:1018D0008491F5CFE8EAF3E08491882341F0909178
:1018E000C00095FFFCCF8093C6003196F5CF809164
:1018F000C00085FFFCCF8AE08093C600FE01849182
:10190000E1EDF8E0882349F09091C00095FFFCCF0D
:101910008093C60031968491F5CF40910F0250918B
:10192000100260911102709112028FE993E035D795
:1019300040911302509114026091150270911602A9
:101940008CE993E02AD740911702509118026091D8
:10195000190270911A0289E993E01FD78091C000A3
:1019600085FFFCCF8AE08093C600FE018491E1ED03
:10197000F8E0882349F09091C00095FFFCCF809358
:10198000C60031968491F5CFE0E8F3E08491882396
:1019900041F09091C00095FFFCCF8093C600319636
:1019A000F5CF8091C00085FFFCCF8AE08093C60010
:1019B000FE018491E1EDF8E0882349F09091C000A8
:1019C00095FFFCCF8093C60031968491F5CF40916E
:1019D000620650916306609164067091650687E720
:1019E00093E0DBD6409166065091670660916806E9
:1019F0007091690684E793E0D0D640916A065091D1
:101A00006B0660916C0670916D0681E793E0C5D618
:101A10008091C00085FFFCCF8AE08093C600FE0164
:101A20008491E1EDF8E0882349F09091C00095FFA2
:101A3000FCCF8093C60031968491F5CFE7E5F3E0C3
:101A40008491882341F09091C00095FFFCCF809352
:101A5000C6003196F5CF8091C00085FFFCCF8AE0AB
:101A60008093C600FE018491E1EDF8E0882349F0FF
:101A70009091C00095FFFCCF8093C6003196849171
:101A8000F5CF40916A0C50916B0C60916C0C709189
:101A90006D0C8EE493E081D640916E0C50916F0CEA
:101AA0006091700C7091710C8BE493E076D640914C
:101AB000720C5091730C6091740C7091750C88E4E9
:101AC00093E06BD64091760C5091770C6091780C36
:101AD0007091790C85E493E060D68091C00085FF19
:101AE000FCCF8AE08093C600FE018491E1EDF8E02E
:101AF000882349F09091C00095FFFCCF8093C600E9
:101B000031968491F5CFE7E2F3E08491882341F0A8
:101B10009091C00095FFFCCF8093C6003196F5CF21
:101B20008091C00085FFFCCF8AE08093C600FE0153
:101B30008491E1EDF8E0882349F09091C00095FF91
:101B4000FCCF8093C60031968491F5CF40914A0C2A
:101B500050914B0C60914C0C70914D0C8EE193E0C8
:101B60002ED640914E0C50914F0C6091500C7091BC
:101B7000510C8BE193E023D64091520C5091530CC1
:101B80006091540C7091550C88E193E018D6409107
:101B9000560C5091570C6091580C7091590C85E17E
:101BA00093E00DD68091C00085FFFCCF8AE0809342
:101BB000C600FE018491E1EDF8E0882349F09091A0
:101BC000C00095FFFCCF8093C60031968491F5CF7D
:101BD000E0EEF2E08491882341F09091C00095FFFF
:101BE000FCCF8093C6003196F5CF8091C00085FF71
:101BF000FCCF8AE08093C600FE018491E1EDF8E01D
:101C0000882349F09091C00095FFFCCF8093C600D7
:101C100031968491F5CF4091420C5091430C6091E4
:101C2000440C7091450C87ED92E0B7D540913E0C85
:101C300050913F0C6091400C7091410C84ED92E00A
:101C4000ACD58091C00085FFFCCF8AE08093C600B0
:101C5000FE018491E1EDF8E0882349F09091C00005
:101C600095FFFCCF8093C60031968491F5CFE1E2D9
:101C7000F2E08491882341F09091C00095FFFCCF61
:101C80008093C6003196F5CF8091C00085FFFCCFD0
:101C90008AE08093C600FE018491E1EDF8E088239C
:101CA00049F09091C00095FFFCCF8093C60031961B
:101CB0008491F5CF4091460C5091470C6091480CAF
:101CC0007091490C88E192E068D540912E0C5091BA
:101CD0002F0C6091300C7091310C85E192E05DD554
:101CE00040917A0C50917B0C60917C0C70917D0C32
:101CF00082E192E064D540913A0C50913B0C6091A6
:101D00003C0C70913D0C8FE092E047D54091360C31
:101D10005091370C6091380C7091390C8CE092E046
:101D20003CD54091320C5091330C6091340C709141
:101D3000350C89E092E031D58091C00085FFFCCF61
:101D40008AE08093C600FE018491E1EDF8E08823EB
:101D500049F09091C00095FFFCCF8093C60031966A
:101D60008491F5CFE7EFF1E08491882341F09091E1
:101D7000C00095FFFCCF8093C6003196F5CF8091CF
:101D8000C00085FFFCCF8AE08093C600FE018491ED
:101D9000E1EDF8E0882349F09091C00095FFFCCF79
:101DA0008093C60031968491F5CF4091780650918A
:101DB000790660917A0670917B068EEE91E0EDD403
:101DC00040917C0650917D0660917E0670917F0661
:101DD0008BEE91E0E2D440918006509181066091B3
:101DE00082067091830688EE91E0D7D48091C0007E
:101DF00085FFFCCF8AE08093C600FE018491E1ED6F
:101E0000F8E0882349F09091C00095FFFCCF8093C3
:101E1000C60031968491F5CFEAEDF1E084918823F4
:101E200041F09091C00095FFFCCF8093C6003196A1
:101E3000F5CF8091C00085FFFCCF8AE08093C6007B
:101E4000FE01C491E1EDF8E0CC2349F08091C0009F
:101E500085FFFCCFC093C6003196C491F5CF409169
:101E6000AA025091AB026091AC027091AD0280ED7C
:101E700091E093D46091A6027091A7028091A8028C
:101E80009091A9020E944255AB01BC018DEC91E0FA
:101E900084D46091A2027091A3028091A4029091D7
:101EA000A5020E944C55AB01BC018AEC91E075D4AF
:101EB0008091C00085FFFCCF8AE08093C600DF914F
:101EC000CF9108954F925F926F927F928F929F92DF
:101ED000AF92BF92CF92DF92EF92FF920F931F9338
:101EE000CF93DF93CDB7DEB7E0970FB6F894DEBFA0
:101EF0000FBECDBF80E1EEEAF2E0DE0191960190E7
:101F00000D928A95E1F780E1EEEBF2E0DE01519669
:101F100001900D928A95E1F780E1EEECF2E0DE01AE
:101F2000119601900D928A95E1F77E0181E2E80E0B
:101F3000F11C0AE51CE0BE016F5E7F4F4AE65CE0E3
:101F40009E012F5F3F4FAAE4BCE09BE2C92E92E0C6
:101F5000D92E80E090E0812C912CE0E8AE2EEFE3CA
:101F6000BE2EF70141905190619071907F01F80170
:101F700041925192619271928F01FB014190519077
:101F800061907190BF01FA014192519261927192F8
:101F9000AF01F90141905190619071909F014D9274
:101FA0005D926D927D92F60181929192A192B19291
:101FB0006F01019684309105A1F60E94BF4380E035
:101FC00090E0A8ECB3E48093420C9093430CA09370
:101FD000440CB093450C80E090E0AAEFB4E4809309
:101FE0003E0C90933F0CA093400CB093410C109288
:101FF000460C1092470C1092480C1092490C80E24B
:102000009EE4A0E0B0E080937A0C90937B0CA093C8
:102010007C0CB0937D0C10922E0C10922F0C109211
:10202000300C1092310C80E090E0A0EAB0E4809394
:102030003A0C90933B0CA0933C0CB0933D0C8DEC70
:102040009CECACECBEE38093360C9093370CA093E1
:10205000380CB093390CC12CD12C80E4E82EFE2C26
:10206000C092320CD092330CE092340CF092350CCA
:1020700010928006109281061092820610928306BA
:1020800010927C0610927D0610927E0610927F06BA
:10209000109278061092790610927A0610927B06BA
:1020A00080E090E0A7E0B3E48093270290932802B9
:1020B000A0932902B0932A0280E090E0AAE2B3E460
:1020C0008093230290932402A0932502B0932602CA
:1020D00080E090E0A2E8B2E480931F029093200297
:1020E000A0932102B093220280E090E0A8E4B2E441
:1020F00080931B0290931C02A0931D02B0931E02BA
:1021000080E090E0A6E6B3E480930F029093100283
:10211000A0931102B09312021092130210921402B3
:10212000109215021092160280E090E0A2E8B2EC44
:102130008093170290931802A0931902B0931A0289
:102140001092620610926306109264061092650661
:102150001092660610926706109268061092690641
:1021600010926A0610926B0610926C0610926D0621
:1021700080E090E0A4ECB1E48093AA029093AB02DB
:10218000A093AC02B093AD0266EF78E28CED9FE3D2
:102190000E943D556093A6027093A7028093A80207
:1021A0009093A90263EC75E78FEA92E40E94475589
:1021B0006093A2027093A3028093A4029093A5025D
:1021C0000E940E4D80E090E0A0E8BFE380939E0265
:1021D00090939F02A093A002B093A1021092940644
:1021E000C0926302D0926402E0926502F0926602AD
:1021F0000E94D11FE1EDF8E08491882341F0909195
:10220000C00095FFFCCF8093C6003196F5CFEEE875
:10221000F1E08491882341F09091C00095FFFCCFBC
:102220008093C6003196F5CF8091C00085FFFCCF2A
:102230008AE08093C600E0960FB6F894DEBF0FBE2A
:10224000CDBFDF91CF911F910F91FF90EF90DF9065
:10225000CF90BF90AF909F908F907F906F905F9046
:102260004F900895CF93DF93CDB7DEB768970FB641
:10227000F894DEBF0FBECDBF84E690E0988F8F8BC1
:1022800086E591E3A3E3B0E089839A83AB83BC83C3
:1022900044E0BE016B5F7F4FCE014796DFD843E03D
:1022A00050E0BE016B5F7F4FCE0101960E945D61E1
:1022B000892B09F0EFC040E16AE57CE0CE0147964A
:1022C000CDD840E16AE67CE0CE014796C7D840E130
:1022D0006AE47CE0CE014796C1D80E94BF4344E047
:1022E00062E47CE0CE014796B9D844E06EE37CE03E
:1022F000CE014796B3D844E066E47CE0CE01479631
:10230000ADD844E06EE27CE0CE014796A7D844E029
:102310006AE77CE0CE014796A1D844E06AE37CE01E
:10232000CE0147969BD844E066E37CE0CE01479619
:1023300095D844E062E37CE0CE0147968FD84CE02C
:1023400068E776E0CE01479689D844E067E272E01C
:10235000CE01479683D844E063E272E0CE0147960F
:102360007DD844E06FE172E0CE01479677D844E033
:102370006BE172E0CE01479671D84CE06FE072E0FD
:10238000CE0147966BD84CE062E676E0CE014796E8
:1023900065D842E0BE016B5E7F4FCE0147965ED8A6
:1023A00042E0BE016D5E7F4FCE01479657D842E0B6
:1023B000BE016F5E7F4FCE01479650D842E0BE010E
:1023C000615F7F4FCE01479649D842E0BE01635F0F
:1023D0007F4FCE01479642D842E0BE01655F7F4FF6
:1023E000CE0147963BD844E061E776E0CE014796C0
:1023F00035D844E06AEA72E0CE0147962FD844E02F
:1024000066EA72E0CE01479629D844E062EA72E0BB
:10241000CE01479623D842E0BE01675F7F4FCE01D1
:1024200047961CD84CE06BE272E0CE01479616D876
:1024300041E064E976E0CE01479610D844E063E6D7
:1024400072E0CE0147960AD80E94D11F0E940E4D1D
:10245000E1EDF8E08491882341F09091C00095FF70
:10246000FCCF8093C6003196F5CFE0EBF1E084918C
:10247000882341F09091C00095FFFCCF8093C60067
:102480003196F5CF8091C00085FFFCCF8AE0809324
:10249000C60001C017DD43D968960FB6F894DEBFB9
:1024A0000FBECDBFDF91CF910895FC01659175916D
:1024B0008591949108952F923F924F925F926F92DF
:1024C0007F928F929F92AF92BF92CF92DF92EF92C4
:1024D000FF920F931F93CF93DF9300D000D0CDB71F
:1024E000DEB71C01FC01EE56F74F14919C01220F40
:1024F000331F220F331F3E832D832C57394F490141
:10250000F901108211821282138220E936E04CE830
:1025100056E068E876E084E896E00E94FD428D810E
:102520009E818F55974FC1DF6B017C01612F77270B
:1025300067FD7095872F972F0E94775B2B013C01D9
:102540002D813E812F5A394F590120E030E040EC77
:102550005FE3C701B6010E94135DA30192010E94CF
:10256000135DF50160837183828393832D813E81A6
:1025700023593D4F3C832B83F90160817181828116
:10258000938160930B0270930C0280930D029093E1
:102590000E0220E030E040E752E40E94DC5A20E7DF
:1025A000C22E26E0D22E7B018C012DE536E049E5D6
:1025B00056E065E576E081E596E00E94D8390E9414
:1025C000634C80E00E949644F401108211821282D2
:1025D000138220E936E04CE856E068E876E084E8CB
:1025E00096E00E94FD422D813E812B56374F3A8363
:1025F0002983C9015ADF9058A30192010E94135DFB
:10260000F501608371838283938320E030E040E7AB
:1026100052E460910B0270910C0280910D02909136
:102620000E020E94DC5A7B018C012DE536E049E563
:1026300056E065E576E081E596E00E94D8390E9493
:10264000634C81E00E94964489819A812EDF9B0130
:10265000AC010E94FC59A30192010E94135DF50197
:10266000608371838283938320E030E040E05FE306
:10267000EB81FC8160817181828193810E94135D75
:1026800060930B0270930C0280930D0290930E02E4
:1026900020E030E040E752E40E94DC5A7B018C01EC
:1026A0002DE536E049E556E065E576E081E596E022
:1026B0000E94D8390E94634C8D819E818355974F2B
:1026C000F4DE0D811E810858194FF80120813181F7
:1026D000428153810E94FC59F4016083718382839B
:1026E00093838D819E818B53974FDFDE2D813E81B9
:1026F0002D5A3D4F7901F80120813181428153816A
:102700000E94FC59F70160837183828393838D81DA
:102710009E818754974FC9DE2D813E81295B3D4FB5
:102720007901F80120813181428153810E94FC5955
:10273000F7016083718382839383F40180819181A7
:10274000A281B381F50180839183A283B383109228
:102750000B0210920C0210920D0210920E02F10167
:10276000EB58F94F81E0808326960FB6F894DEBFD0
:102770000FBECDBFDF91CF911F910F91FF90EF90D2
:10278000DF90CF90BF90AF909F908F907F906F9091
:102790005F904F903F902F900895FC012491222349
:1027A00041F03091C00035FFFCCF2093C600019668
:1027B000F4CF22E030E08BE996E00C94B934FC01D0
:1027C0002491222341F03091C00035FFFCCF2093AB
:1027D000C6000196F4CF2AE030E08BE996E00C9435
:1027E0000F34CF93DF931F921F92CDB7DEB7809146
:1027F000E00D9091E10D9E012F5F3F4F009719F47E
:10280000265E3D4002C0281B390B3A83298389810B
:102810009A810F900F90DF91CF910895269A2E986C
:102820000895FCDF40E052EC61E070E08BE996E057
:102830000E94CF32ECE8F8E08491882341F0909137
:10284000C00095FFFCCF8093C6003196F5CF8091F4
:10285000C00085FFFCCF8AE08093C60081ED98E040
:10286000FC012491222341F03091C00035FFFCCFC0
:102870002093C6003196F5CF24B720FF14C0E4E8BA
:10288000F8E03491332341F04091C00045FFFCCF84
:102890003093C6003196F5CF3091C00035FFFCCFA4
:1028A0003AE03093C60021FF14C0E4E7F8E0349129
:1028B000332341F04091C00045FFFCCF3093C60068
:1028C0003196F5CF3091C00035FFFCCF3AE0309320
:1028D000C60022FF14C0E3E6F8E03491332341F050
:1028E0004091C00045FFFCCF3093C6003196F5CF34
:1028F0003091C00035FFFCCF3AE03093C60023FF93
:1029000014C0E3E5F8E03491332341F04091C00076
:1029100045FFFCCF3093C6003196F5CF3091C00013
:1029200035FFFCCF3AE03093C60025FF14C0E3E446
:10293000F8E02491222341F03091C00035FFFCCF14
:102940002093C6003196F5CF2091C00025FFFCCF23
:102950002AE02093C60014BEEAE3F8E02491222383
:1029600041F03091C00035FFFCCF2093C600319676
:10297000F5CFE4E3F8E02491222341F03091C00048
:1029800035FFFCCF2093C6003196F5CFE2E3F8E0A7
:102990002491222341F03091C00035FFFCCF2093D9
:1029A000C6003196F5CF2091C00025FFFCCF2AE06C
:1029B0002093C600FC012491E1EDF8E0222349F0C8
:1029C0003091C00035FFFCCF2093C6003196249192
:1029D000F5CFE2E2F8E02491222341F03091C000EB
:1029E00035FFFCCF2093C6003196F5CFEDE0F8E03F
:1029F0002491222341F03091C00035FFFCCF209379
:102A0000C6003196F5CFE1E0F8E02491222341F0B1
:102A10003091C00035FFFCCF2093C6003196F5CF32
:102A2000EAEEF7E02491222341F03091C00035FF17
:102A3000FCCF2093C6003196F5CF2091C00025FF32
:102A4000FCCF2AE02093C600EFEDF7E0249122238B
:102A500041F03091C00035FFFCCF2093C600319685
:102A6000F5CFE3EDF7E02491222341F03091C0004F
:102A700035FFFCCF2093C6003196F5CF2091C000E2
:102A800025FFFCCF2AE02093C600FC018491E1EDF4
:102A9000F8E0882349F09091C00095FFFCCF809327
:102AA000C60031968491F5CFE4ECF7E08491882359
:102AB00041F09091C00095FFFCCF8093C600319605
:102AC000F5CF8FDE4AE050E0BC018BE996E00E9432
:102AD000E333EDEAF7E08491882341F09091C00060
:102AE00095FFFCCF8093C6003196F5CF4AE050E0C9
:102AF00060ED74E08BE996E00E94E3338091C000C2
:102B000085FFFCCF8AE08093C6001092AB04109240
:102B1000AC041092AD041092AE04A4DB0E94F94EF6
:102B20000E9472380E94CF4BFFEF23ED80E3F150FB
:102B300020408040E1F700C00000089580919F048C
:102B40009091A00460E070E001960C94765E682F8E
:102B5000772767FD70952091A9043091AA0440E67B
:102B6000429FC001439F900D112481559B4F0E94AD
:102B700049619093A00480939F0421E0892B09F47C
:102B800020E0822F08950E948A5760939B047093DF
:102B90009C0480939D0490939E04EEEDF4E0849158
:102BA000882341F09091C00095FFFCCF8093C60030
:102BB0003196F5CF8091C00085FFFCCF8AE08093ED
:102BC000C60008958BE996E00E942133E1EEF4E01F
:102BD0008491882341F09091C00095FFFCCF8093B1
:102BE000C6003196F5CF409135065091360660917A
:102BF0003706709138064F5F5F4F6F4F7F4F2AE067
:102C000030E08BE996E00E94C0338091C00085FFE0
:102C1000FCCF8AE08093C600B6CF8F929F92AF928E
:102C2000BF92CF92DF92EF92FF920F931F93CF93B9
:102C3000DF9337E0E32E34E0F32E04E816E0C1E53D
:102C4000D6E047E9C42E46E0D42EF70181917F01FA
:102C50007EDF882311F172DF4B015C01F601808178
:102C6000811103C06091300601C061E070E080E036
:102C700090E00E94775BF80120813181428153818D
:102C80000E94135D9B01AC01C501B4010E94FC5977
:102C9000688379838A839B8309C0F801808191814D
:102CA000A281B38188839983AA83BB830C5F1F4F62
:102CB0002496FFEFCF1ADF0A8BE0E81684E0F806CF
:102CC00021F686E444DF8823D1F038DF6B017C01F4
:102CD00060934106709342068093430690934406A6
:102CE00020E030E0A9010E94D85C181644F4C0929C
:102CF0000B02D0920C02E0920D02F0920E02DF91D4
:102D0000CF911F910F91FF90EF90DF90CF90BF90E8
:102D1000AF909F908F900895CF92DF92EF92FF92A5
:102D2000CF93DF93EC01C0903F02D0904002E0903F
:102D30004102F0904202A7019601688179818A815F
:102D40009B810E94D55A87FF04C0C882D982EA823B
:102D5000FB82C0904302D0904402E0904502F09084
:102D60004602A70196016C817D818E819F810E9420
:102D7000D55A87FF04C0CC82DD82EE82FF82C090EC
:102D80003702D0903802E0903902F0903A02A70161
:102D90009601688179818A819B810E94D85C18168E
:102DA00024F4C882D982EA82FB82C0903B02D09090
:102DB0003C02E0903D02F0903E02A70196016C813A
:102DC0007D818E819F810E94D85C181624F4CC826C
:102DD000DD82EE82FF82DF91CF91FF90EF90DF9056
:102DE000CF9008954F925F926F927F928F929F92B1
:102DF000AF92BF92CF92DF92EF92FF920F931F9309
:102E0000CF93DF93CDB7DEB72C970FB6F894DEBF24
:102E10000FBECDBF8C0121EE3EE245E652E4DC015F
:102E20006D917D918D919C910E94DC5A6B017C018A
:102E30000E94765D6D837E838F83988780912702C1
:102E400090912802A0912902B0912A0289839A8345
:102E5000AB83BC83C701B6010E94D95A6B017C01C8
:102E600021EE3EE245E652E4D80114966D917D9143
:102E70008D919C9117970E94DC5A4B015C010E9436
:102E8000765D69877A878B879C8740902302509074
:102E900024026090250270902602C501B4010E94B0
:102EA000D95A4B015C0129813A814B815C81C70170
:102EB000B6010E94135D6B017C01A3019201C50163
:102EC000B4010E94135D9B01AC01C701B6010E94D1
:102ED000FC5920911F023091200240912102509113
:102EE00022020E94FC5920911B0230911C02409149
:102EF0001D0250911E020E94FC596B017C0121EEC3
:102F00003EE245E652E4F80160857185828593854D
:102F10000E94DC5A4B015C010E94D95A9B01AC0112
:102F2000C701B6010E94135D20910F02309110027B
:102F300040911102509112020E94FB596093450684
:102F4000709346068093470690934806C501B401E6
:102F50000E94765D9B01AC01C701B6010E94135D22
:102F600020911302309114024091150250911602E3
:102F70000E94FB596093490670934A0680934B0662
:102F800090934C0629813A814B815C816D817E81D1
:102F90008F8198850E94135D6B017C01A3019201D2
:102FA00069857A858B859C850E94135D9B01AC01A8
:102FB000C701B6010E94FC592091170230911802F6
:102FC0004091190250911A020E94FB5960934D06DC
:102FD00070934E0680934F06909350062C960FB632
:102FE000F894DEBF0FBECDBFDF91CF911F910F913F
:102FF000FF90EF90DF90CF90BF90AF909F908F9019
:103000007F906F905F904F9008954F925F926F9274
:103010007F928F929F92AF92BF92CF92DF92EF9268
:10302000FF92CF93DF93CDB7DEB768970FB6F894D2
:10303000DEBF0FBECDBF7C0120912B0230912C0250
:1030400040912D0250912E02DC016D917D918D9168
:103050009C910E94135D20910F02309110024091CB
:103060001102509112020E94FC5969877A878B875E
:103070009C8720912F023091300240913102509173
:103080003202F70164817581868197810E94135D08
:1030900020911302309114024091150250911602B2
:1030A0000E94FC596D877E878F87988B2091330211
:1030B000309134024091350250913602D701189672
:1030C0006D917D918D919C911B970E94135D209134
:1030D0001702309118024091190250911A020E9471
:1030E000FC59698B7A8B8B8B9C8B29853A854B8518
:1030F0005C85CA01B9010E94135D6B017C012D85BD
:103100003E854F855889CA01B9010E94135D9B0114
:10311000AC01C701B6010E94FC590E94805D20915C
:103120001F023091200240912102509122020E9400
:10313000FB5920911B0230911C0240911D025091BD
:103140001E020E94FB5969837A838B839C83609360
:1031500088047093890480938A0490938B049B0164
:10316000AC010E94135D6B017C0129893A894B896E
:103170005C89CA01B9010E94135D9B01AC01C701C2
:10318000B6010E94FC590E94805D60938404709394
:103190008504809386049093870480902702909002
:1031A0002802A0902902B0902A0240902302509059
:1031B000240260902502709026029B01AC010E94BF
:1031C000135D6B017C01A5019401C501B4010E944E
:1031D000135D9B01AC01C701B6010E94FB596B0155
:1031E0007C01A3019201C301B2010E94135D9B0106
:1031F000AC01C701B6010E94FB596B017C01A5011E
:103200009401C501B4010E94FC59A30192010E94DE
:10321000135D9B01AC01C701B6010E94DC5A6B0132
:103220007C01609380047093810480938204909366
:1032300083049B01AC010E94135D9B01AC0160E023
:1032400070E080E89FE30E94FB590E94805D6D83DF
:103250007E838F83988760937C0470937D04809332
:103260007E0490937F04A7019601C301B2010E94DE
:10327000135D9B01AC01C501B4010E94FC596D8B2B
:103280007E8B8F8B988F60937804709379048093F2
:103290007A0490937B042D813E814F815885C30130
:1032A000B2010E94135D4B015C0160937404709342
:1032B0007504809376049093770429813A814B8139
:1032C0005C8169897A898B899C890E946F5A2B015C
:1032D0003C012D893E894F89588DC501B4010E945A
:1032E0006F5A9B01AC01C301B2010E94FC594B0112
:1032F0005C016093700470937104809372049093E6
:103300007304A70196016D817E818F8198850E944B
:103310006F5A6B017C0160936C0470936D04809311
:103320006E0490936F0421EE3EE245E652E4C5013F
:10333000B4010E94135D6093450670934606809326
:10334000470690934806A7019601C501B4010E9463
:10335000FB5921EE3EE245E652E40E94135D609384
:10336000490670934A0680934B0690934C06298534
:103370003A854B855C856D857E858F8598890E9411
:103380006F5A21EE3EE245E652E40E94135D6093DF
:103390004D0670934E0680934F06909350066896A4
:1033A0000FB6F894DEBF0FBECDBFDF91CF91FF9077
:1033B000EF90DF90CF90BF90AF909F908F907F90D5
:1033C0006F905F904F9008952F923F924F925F922F
:1033D0006F927F928F929F92AF92BF92CF92DF9225
:1033E000EF92FF920F931F93CF93DF93CDB7DEB78A
:1033F00066970FB6F894DEBF0FBECDBF0E948A5706
:1034000060939B0470939C0480939D0490939E040E
:1034100080912F06811173C1CE0101967C0114E8C1
:10342000C12E16E0D12E01E516E0D8016D917D91F7
:103430008D919D918D01F601219131914191519193
:103440006F010E94FB59D7016D937D938D939D93DE
:103450007D01B6E001361B0741F769817A818B81D6
:103460009C818D809E80AF80B884C984DA84EB848F
:10347000FC849B01AC010E94135D2B013C01A50162
:103480009401C501B4010E94135D9B01AC01C3010D
:10349000B2010E94FC594B015C01A7019601C701D2
:1034A000B6010E94135D9B01AC01C501B4010E94ED
:1034B000FC590E94805D6B017C012DEB37E346E8EF
:1034C00055E30E94D55A87FF11C0CD84DE84EF8476
:1034D000F88820E030E0A901C701B6010E94D85C5D
:1034E000181624F0F7FAF094F7F8F0942DEB37E380
:1034F00046E855E3C701B6010E94D55A87FD33C19E
:1035000020E030E84BEB55E4C701B6010E94135DA3
:1035100020910B0230910C0240910D0250910E024D
:103520000E94DC5A6B017C0160916B0270916C020D
:10353000882777FD8095982F0E94775B9B01AC01CF
:10354000C701B6010E94DC5A20E030E048E453E4B1
:103550000E94135D0E94445B5B01161617061CF067
:10356000AA24A394B12C88248394912CC501AA2762
:1035700097FDA095BA2F8B8B9C8BAD8BBE8BB40126
:10358000882777FD8095982F0E94775B6B017C01DF
:103590006B897C898D899E890E94775B9B01AC0138
:1035A000C701B6010E94DC5A2B013C01A1E5B6E03F
:1035B000BA8BA98BFE0131961F0104E816E0D801F1
:1035C000CD90DD90ED90FD908D01F10161917191B3
:1035D000819191911F01A30192010E94135D9B01B2
:1035E000AC01C701B6010E94FC59A989BA896D9343
:1035F0007D938D939D93BA8BA98BB6E004391B07FD
:10360000F1F681E596E001DD85E496E085DB6091E9
:103610006B0270916C02882777FD8095982F0E942D
:10362000775B20910B0230910C0240910D0250917A
:103630000E020E94135D20E030E040E752E40E9459
:10364000DC5A20E030E048EC52E40E94DC5AF0E71B
:10365000CF2EF6E0DF2E7B018C012DE536E04DE428
:1036600056E069E476E085E496E00E94D839EFEF11
:103670008E1A9E0AA814B9040CF081CF80915106CD
:1036800090915206A0915306B091540680938406FF
:1036900090938506A0938606B09387068091550681
:1036A00090915606A0915706B091580680938806CF
:1036B00090938906A0938A06B0938B068091590651
:1036C00090915A06A0915B06B0915C0680938C069F
:1036D00090938D06A0938E06B0938F0680915D0621
:1036E00090915E06A0915F06B0916006809390066F
:1036F00090939106A0939206B093930634C081E50F
:1037000096E00ADB60916B0270916C02882777FD6E
:103710008095982F0E94775B20910B0230910C02CC
:1037200040910D0250910E020E94135D20E030E0A6
:1037300040E752E40E94DC5A20E030E048EC52E4DA
:103740000E94DC5AE0E7CE2EE6E0DE2E7B018C0103
:103750002DE536E049E556E065E576E081E596E061
:103760000E94D8398BCF66960FB6F894DEBF0FBE95
:10377000CDBFDF91CF911F910F91FF90EF90DF9020
:10378000CF90BF90AF909F908F907F906F905F9001
:103790004F903F902F900895F8940E945D4F5F9A4C
:1037A000109275068A9A109276069FB7F8948091C7
:1037B00008018160809308019FBF10927706129ADA
:1037C00060E08CE00E945659E7EDF8E08491882390
:1037D00041F09091C00095FFFCCF8093C6003196D8
:1037E000F5CFEFEBF4E08491882341F09091C00095
:1037F00095FFFCCF8093C6003196F5CF8091C00035
:1038000085FFFCCF8AE08093C6007894C6E0D0E0C4
:10381000219739F068EC70E080E090E00E94B957A1
:10382000F7CFF894FFCF4F925F926F927F928F9273
:103830009F92BF92CF92DF92EF92FF920F931F93CE
:10384000CF93DF9300E6D02E04E010E08CE8E82E62
:1038500086E0F82E9AE0C92EBB24B39480911C0711
:1038600090911D0720911E0730911F07821B930B1B
:103870008F779927892B09F412C28091A504909122
:10388000A60404970CF00BC28BE996E00E94053366
:103890008093A4042091A2043091A3048A3061F0A3
:1038A0008D3051F08A3321F49091A104992321F0B5
:1038B0002F3531050CF419C12115310519F4109279
:1038C000A104EDC18091A7049091A804D89E400165
:1038D000D99E900C1124F401E20FF31FE155FB4F28
:1038E00010822091A1042111FBC0FC01E555FB4F82
:1038F0001082E401C155DB4F6EE470E0CE010E94FE
:1039000049610097F1F19093A00480939F048C1B70
:103910009D0B880D991D4AE050E060E070E08055F5
:103920009B4F0E94DE5F6093390670933A06809346
:103930003B0690933C0640903506509036066090CA
:103940003706709038062FEF421A520A620A720A3E
:10395000C091A704D091A804641575058605970544
:1039600009F4E1C0DC9EC001DD9E900D112468EADF
:1039700077E081559B4F0E942F61892B09F0D3C0BE
:1039800061C16AE270E0CE010E944961892B09F4AD
:1039900044C0E7EDF8E08491882341F09091C000A5
:1039A00095FFFCCF8093C6003196F5CFE2E0F7E0BB
:1039B0008491882341F09091C00095FFFCCF8093C3
:1039C000C6003196F5CF409135065091360660918C
:1039D0003706709138062AE030E08BE996E00E94C5
:1039E000C0338091C00085FFFCCF8AE08093C60081
:1039F0001092A3041092A20452C1809139069091B2
:103A00003A06A0913B06B0913C0680933506909310
:103A10003606A0933706B09338068091A70490919C
:103A2000A804D89EE001D99ED00D1124CE01815565
:103A30009B4F4C0167E470E00E944961009761F17F
:103A40009093A00480939F04881999098C0F9D1F5F
:103A500060E070E080559B4F0E94765E0E94445B60
:103A600064307105C8F480918D048823A9F0F701B2
:103A70008491ECE8F6E0882349F09091C00095FF2E
:103A8000FCCF8093C60031968491F5CF8091C00021
:103A900085FFFCCFC092C600C091A704D091A804B6
:103AA000DC9EC001DD9E900D11246EED72E081550B
:103AB0009B4F0E945461892B09F46EDECE01019662
:103AC000B8010E94E85D9093A8048093A7048091B8
:103AD000A5049091A60401969093A6048093A50452
:103AE0001092A3041092A204B9CE8B3311F4B092B9
:103AF000A1049091A1049111B1CE4091A7045091DD
:103B0000A804B9016F5F7F4F7093A3046093A20470
:103B1000D49EF001D59EF00D1124E20FF31FE15564
:103B2000FB4F80839BCEDC9E4001DD9E900C1124D8
:103B3000C40181559B4F3C016AE270E00E944961DB
:103B4000009789F5E7EDF8E08491882341F09091A2
:103B5000C00095FFFCCF8093C6003196F5CFECE214
:103B6000F7E08491882341F09091C00095FFFCCF4D
:103B70008093C6003196F5CF4091350650913606B8
:103B800060913706709138062AE030E08BE996E0C4
:103B90000E94C0338091C00085FFFCCF8AE08093F3
:103BA000C60010D825CF20E0C0E0F401E20FF11DDF
:103BB000E155FB4F30813A3219F02F5FC327F5CF23
:103BC0009093A00480939F0486199709880D991DEE
:103BD00060E070E080559B4F0E94765E0E94445BDF
:103BE000D0E0C617D70709F408CFE7EDF8E08491D5
:103BF000882341F09091C00095FFFCCF8093C600D0
:103C00003196F5CFE6E5F7E08491882341F0909175
:103C1000C00095FFFCCF8093C6003196F5CF409150
:103C200035065091360660913706709138062AE0C5
:103C300030E08BE996E00E94C0338091C00085FFA0
:103C4000FCCFACCFE7EDF8E08491882341F0909170
:103C5000C00095FFFCCF8093C6003196F5CFE5E715
:103C6000F7E08491882341F09091C00095FFFCCF4C
:103C70008093C6003196F5CF4091350650913606B7
:103C800060913706709138062AE030E08BE996E0C3
:103C90000E94C0338091C00085FFFCCF7FCFDF91B1
:103CA000CF911F910F91FF90EF90DF90CF90BF9039
:103CB0009F908F907F906F905F904F900895CF92DC
:103CC000DF92EF92FF920F931F93CF93C82F8091B3
:103CD000A5049091A60403970CF4A5DD0E948A57D1
:103CE00000919704109198042091990430919A04BE
:103CF000C0909B04D0909C04E0909D04F0909E04A2
:103D00006C197D098E099F090617170728073907BF
:103D100028F4012B022B032B09F03EDD4091070212
:103D2000509108026091090270910A02452B462BBE
:103D3000472B19F10E948A5700919B0410919C0413
:103D400020919D0430919E04601B710B820B930B9C
:103D500000910702109108022091090230910A0295
:103D6000061717072807390740F490912507809117
:103D70002407981302C0CC2349F0CF911F910F91D3
:103D8000FF90EF90DF90CF900C94BB395F9A109228
:103D900075068A9A109276069FB7F894809108016A
:103DA0008160809308019FBF10927706129AE5CF39
:103DB0000E945D4F80918D04811134C081E0809319
:103DC0008D048091350690913606A0913706B0910A
:103DD00038068093310690933206A0933306B09351
:103DE0003406E7EDF8E08491882341F09091C0001B
:103DF00095FFFCCF8093C6003196F5CFE9E4F4E05F
:103E00008491882341F09091C00095FFFCCF80936E
:103E1000C6003196F5CF8091C00085FFFCCF8AE0C7
:103E20008093C600089580918D040895CF93DF9309
:103E3000EC018091700680938E0484E50E94A715A2
:103E4000811102C080E075C00E949E150E94495BEE
:103E500060938E046623B1F3E1EDF8E0849188234A
:103E600041F09091C00095FFFCCF8093C600319641
:103E7000F5CFCD36D105B9F054F4C836D105B1F03F
:103E8000C936D10509F045C0E8E2F3E021C0CA3DDA
:103E9000D10531F0CD3DD105E1F5E3EEF2E036C0DC
:103EA000EAEFF2E029C0E1E1F3E01CC0EFE3F3E068
:103EB0008191882371F19091C00095FFFCCF809390
:103EC000C600F6CF9091C00095FFFCCF8093C6004E
:103ED00081918111F7CF1DC09091C00095FFFCCF5B
:103EE0008093C60081918111F7CF13C09091C000DB
:103EF00095FFFCCF8093C60081918111F7CF09C057
:103F00009091C00095FFFCCF8093C60081918111F4
:103F1000F7CF40E050E060918E048BE996E00E947C
:103F20001A348091C00085FFFCCF8AE08093C600E0
:103F300081E0DF91CF910895CF92DF92EF92FF92CF
:103F4000209194062223F1F020E030E040E05FE38E
:103F50000E94135D6B017C0120E030E0A9010E940A
:103F6000D55A882379F0A7019601C701B6010E94AE
:103F7000135D2BED3FE049E450E40E94135D9B018B
:103F8000AC0104C020E030E040E85FE360E070E0B6
:103F900080E89FE30E94DC5AFF90EF90DF90CF9083
:103FA000089560916302709164028091650290911E
:103FB0006602C2DF60935F027093600280936102C9
:103FC0009093620208953F924F925F926F927F9218
:103FD0008F929F92AF92BF92CF92DF92EF92FF9219
:103FE0000F931F93CF93DF93CDB7DEB7A0970FB694
:103FF000F894DEBF0FBECDBF87E40E94A7158823CB
:1040000009F44BC30E949E150E94445B6A357105FA
:1040100009F42AC20CF0C7C06430710509F434C138
:1040200034F46230710508F425C10C94FA306C3117
:10403000710511F00C94FA3080910B0290910C02F2
:10404000A0910D02B0910E0280933D0690933E0622
:10405000A0933F06B093400680916B0290916C0252
:10406000909396068093950684E690E090936C0278
:1040700080936B020E948A5760939B0470939C0408
:1040800080939D0490939E0481E00E9496448091C9
:10409000840690918506A0918606B091870680934C
:1040A000510690935206A0935306B0935406809104
:1040B000880690918906A0918A06B0918B0680931C
:1040C000550690935606A0935706B09358068091D4
:1040D0008C0690918D06A0918E06B0918F068093EC
:1040E000590690935A06A0935B06B0935C068091A4
:1040F000900690919106A0919206B09193068093BC
:104100005D0690935E06A0935F06B09360061092E2
:104110000B0210920C0210920D0210920E0280916E
:104120004D0690914E06A0914F06B091500689839E
:104130009A83AB83BC8381E090E00E945B1280E0B5
:1041400090E00E945B128091620690916306A091BC
:104150006406B09165068093450690934606A09349
:104160004706B09348068091660690916706A09135
:104170006806B09169068093490690934A06A09319
:104180004B06B0934C0682E696E00E94F21615E4C8
:10419000E12E16E0F12E64E876E041E556E022E6F5
:1041A00036E010E0B3C06D35710509F4BBC154F4BD
:1041B0006B35710509F45CC16C35710509F45DC19D
:1041C0000C94FA306E35710509F40DC26F35710526
:1041D00011F00C94FA3081E080932F068093300622
:1041E0008091450690914606A0914706B0914806F9
:1041F0008093510690935206A0935306B0935406B1
:104200008093840690938506A0938606B0938706D4
:104210008091490690914A06A0914B06B0914C06B8
:104220008093550690935606A0935706B093580670
:104230008093880690938906A0938A06B0938B0694
:1042400080914D0690914E06A0914F06B091500678
:104250008093590690935A06A0935B06B0935C0630
:1042600080938C0690938D06A0938E06B0938F0654
:104270000C94FA3080918D0481110C94FA300E94D4
:104280000D16A2D80C94FA3080E50E94A715882359
:1042900039F00E949E150E94495B4B015C0103C0EE
:1042A000812C912C540183E50E94A715882361F08D
:1042B0000E949E1520E030E04AE754E40E94135D1E
:1042C0000E94495B4B015C010E94634C0E948A572B
:1042D0006B017C01C80CD91CEA1CFB1C0E948A578C
:1042E00060939B0470939C0480939D0490939E0420
:1042F0000E948A576C157D058E059F0510F00C9461
:10430000FA300E94464D80E0DADCF2CFF70180817E
:104310009181A281B381FB0181939193A193B19388
:10432000BF01FA0181939193A193B193AF01F90178
:1043300081919191A191B1919F01F7018193919305
:10434000A193B1937F011F5F133001F720E030E0AC
:10435000A90169817A818B819C810E94D55A882329
:1043600009F444C020E936E0AE014F5F5F4F69E4D5
:1043700076E085E496E00E94FD4280916A06909185
:104380006B06A0916C06B0916D0680934D069093DC
:104390004E06A0934F06B09350066091750270913F
:1043A0007602809177029091780260930B0270936D
:1043B0000C0280930D0290930E0220E030E040E763
:1043C00052E40E94DC5AB0E7CB2EB6E0DB2E7B0134
:1043D0008C0120E936E04DE456E069E476E085E4BE
:1043E00096E00E94D8390E94634C1AC080916A06F8
:1043F00090916B06A0916C06B0916D0680934D066E
:1044000090934E06A0934F06B093500620E936E0F5
:104410004DE456E069E476E085E496E00E94FD42D2
:1044200080913D0690913E06A0913F06B0914006D6
:1044300080930B0290930C02A0930D02B0930E0296
:10444000809195069091960690936C0280936B02F2
:104450000E948A5760939B0470939C0480939D04F0
:1044600090939E040C94FA30109230060C94FA301B
:1044700081E0809330060C94FA3085E40E94A71501
:10448000811102C00E94634CF7E0CF2EF4E0DF2ED2
:1044900004E816E0A8E7EA2EA6E0FA2EB12CF60111
:1044A00081916F010E94A715882389F1F3E0BF1263
:1044B0000CC00E949E15F8016083718382839383F0
:1044C00080E996E00E94A24322C0F2E0BF1619F0F4
:1044D0000E949E1509C00E949E15F701208131811E
:1044E000428153810E94FC59F80160837183828369
:1044F000938384E896E00E94051820E936E04DE4B5
:1045000056E069E476E085E496E00E94FD42B394CB
:104510000C5F1F4FF4E0EF0EF11C24E0B212BFCF8E
:104520000C94FA30E7E0EE2EE4E0FE2E00E010E01E
:10453000F70181917F010E94A715882399F00E94BD
:104540009E15F801EB5BF94F60837183828393833F
:10455000E1E0F0E0EC0FFD1FE00FF11F60837183DD
:10456000828393830C5F1F4F0C30110509F720E9FC
:1045700036E04DE456E069E476E085E496E00E949A
:10458000FD4285E496E00E94F21675E4E72E76E09F
:10459000F72E61E576E044E856E09E012F5F3F4F3D
:1045A00010E0F70180819181A281B381FB018193A9
:1045B0009193A193B193BF01FA0181939193A19338
:1045C000B193AF01F90181919191A191B1919F01B5
:1045D000F70181939193A193B1937F011F5F1330F2
:1045E00001F70C94FA3010922F0610923006809149
:1045F000840690918506A0918606B09187068983EE
:104600009A83AB83BC838091880690918906A091A0
:104610008A06B0918B068D839E83AF83B887809185
:104620008C0690918D06A0918E06B0918F06898799
:104630009A87AB87BC8784E896E00E94F21665E40F
:10464000E62E66E0F62E61E576E044E856E09E014F
:104650002F5F3F4F10E0F70180819181A281B381EC
:10466000FB0181939193A193B193BF01FA018193CF
:104670009193A193B193AF01F90181919191A1918E
:10468000B1919F01F70181939193A193B1937F0120
:104690001F5F133001F70C94FA308DE40E94A715C8
:1046A000882311F40C942B300E949E150E94445BC9
:1046B0006937710509F4BEC70CF085C06C3571050A
:1046C00009F4E6C50CF042C06035710509F473C504
:1046D0000CF56231710509F48CC594F461317105F2
:1046E00011F00C94FA305F988A989FB7F8948091F3
:1046F00008018E7F809308019FBF12980C94FA30B6
:104700006F31710509F41BC16A32710509F49CC14E
:104710000C94FA306335710509F466C56CF46135A3
:10472000710509F44CC56235710511F00C94FA302D
:1047300010929A060C94FA306435710509F459C543
:104740006535710509F48BC50C94FA306037710535
:1047500009F4DEC1CCF46A36710509F4F2C454F4EC
:104760006836710509F4B7C16936710509F4E3C10A
:104770000C94FA306B36710509F415C56D36710568
:1047800009F427C30C94FA306537710509F40CC697
:1047900064F46237710509F416C66337710511F0C8
:1047A0000C94FA30EEE6F5E0FBC56737710509F4C5
:1047B000C3C06837710511F00C94FA3080E00E9494
:1047C00096440C94FA306D32F1E07F0711F40C94AA
:1047D000FC2D0CF04CC06C3C710511F40C94BA2CFF
:1047E00014F5683C710511F40C94112C54F46C38D8
:1047F000710509F48FC16E3B710509F4A1C30C94D6
:10480000FA30693C710511F40C94832C6B3C7105F2
:1048100011F00C94FA3007E014E08AE6E82E8CE000
:10482000F82E0C94AB2C6C3D710511F40C946E2D8C
:1048300094F46D3C710511F40C94DA2C6E3C710506
:1048400011F00C94FA3007E014E0B8E7EB2EB6E074
:10485000FB2E0C943F2D6D3D710511F40C947D2DB4
:10486000623E710511F40C94A32D0C94FA3060395A
:1048700031E0730711F40C941F303CF56E3691E073
:10488000790711F40C94902F6CF46F32F1E07F07EC
:1048900011F40C94582F6033714011F40C94BE2E17
:1048A0000C94FA306F3631E0730711F40C94CE2F6C
:1048B0006037714011F00C94FA3007E014E022E602
:1048C000E22E26E0F22E0C941030663F91E079073C
:1048D00011F40C9425307CF4643FF1E07F0711F46F
:1048E0000C942230653F714011F00C94FA300E9414
:1048F00032110C94FA30673F31E0730711F40C94D5
:104900002830673E734011F00C94FA3010928D04F9
:104910008091310690913206A0913306B091340611
:104920008093350690933606A0933706B0933806E9
:104930000E94E2150C94FA30E5E6F3E085C60E9489
:104940008A5760938F04709390048093910490939E
:104950009204009193041091940420919504309155
:104960009604601B710B820B930B28EE33E040E042
:1049700050E00E94FB5DCA01B9012CE330E040E049
:1049800050E00E94FB5D7F936F933F932F938DE7E1
:1049900096E09F938F93CE0101969F938F930E94F1
:1049A0006B61E1EDF8E084910FB6F894DEBF0FBEC5
:1049B000CDBFE1EDF8E0882349F09091C00095FF6C
:1049C000FCCF8093C60031968491F5CFFE013196DD
:1049D0008191882339F09091C00095FFFCCF80939E
:1049E000C600F6CF8091C00085FFFCCF8AE080939F
:1049F000C6008091F90B882311F40C94FA301092C0
:104A0000F90B0091700610E0000F111F0A5E124FA3
:104A1000F80160817181882777FD8095982F0E9429
:104A2000775B209181023091820240918302509104
:104A300084020E94D85C181614F00C94FA30F80125
:104A4000118210820C94FA3083E50E94A715882306
:104A500011F40C94FA300E949E150E94445BF62ECD
:104A6000E72E862F9E2D8C0180E50E94A7158823B6
:104A700031F00F3F110509F010F40C94FD300DE0FA
:104A800010E0EFECF3E0819191918017910711F420
:104A90000C94FA3024E0E730F207A9F70930110549
:104AA00039F48F2D9E2D90936F0680936E0604C06F
:104AB00017FF02C00C94FA3061E0802F0E94565913
:104AC0006F2D802F0E948F596F2D7E2D802F0E9479
:104AD00040580C94FA3088E690E0A8D981110C94E3
:104AE000FA3083E50E94A715882371F000918E04A7
:104AF0000E949E1510E0000F111F0A5E124F0E94C7
:104B0000445BF801718360830E945C4F0C94FA301F
:104B10000E94CC1B83E50E94A715882311F40C94F6
:104B2000FA300E949E150E94445B7093150D6093AD
:104B3000140D0C94FA3089E690E078D981110C9428
:104B4000FA30E7E7F6E08491882341F09091C000C5
:104B500095FFFCCF8093C6003196F5CFE0918E048F
:104B600024E0E29FF0011124E25FF24F4081518185
:104B70006281738121E030E08BE996E00E94B934D4
:104B8000E4E7F6E08491882341F09091C00095FF1E
:104B9000FCCF8093C6003196F5CFE0918E04F0E013
:104BA000EE0FFF1FEA5EF24F60817181882777FD6B
:104BB0008095982F0E94775BAB01BC0121E030E02B
:104BC0008BE996E00E94B934E0E7F6E0849188230F
:104BD00041F09091C00095FFFCCF8093C6003196C4
:104BE000F5CF4091080D5091090D60910A0D70911B
:104BF0000B0D21E030E08BE996E00E94B934EDE640
:104C0000F6E08491882341F09091C00095FFFCCF9D
:104C10008093C6003196F5CF6091140D7091150DFB
:104C2000882777FD8095982F0E94775BAB01BC01A8
:104C300021E030E08BE996E00E94B934EAE6F6E044
:104C40008491882341F09091C00095FFFCCF809320
:104C5000C6003196F5CF4AE050E060E070E08BE9A5
:104C600096E00E94E333E8E6F6E08491882341F081
:104C70009091C00095FFFCCF8093C6003196F5CF90
:104C800040910E0D50910F0D6091100D7091110D0E
:104C900021E030E08BE996E00E94B934E5E6F6E0E9
:104CA0008491882341F09091C00095FFFCCF8093C0
:104CB000C6003196F5CF6091160D7091170D8827BB
:104CC00077FD8095982F0E94775BAB01BC0121E0B6
:104CD00030E08BE996E00E94B934E1E6F6E0849199
:104CE000882341F09091C00095FFFCCF8093C600CF
:104CF0003196F5CF80918E0490E00E943B4DBC012F
:104D0000882777FD8095982F0E94775B20E33FE806
:104D10004DE25FE30E94135D20E030E04EEF52E48D
:104D20000E94DC5AAB01BC0122E030E08BE996E046
:104D30000E94B934EFE5F6E08491882341F0909128
:104D4000C00095FFFCCF8093C6003196F5CFEAE511
:104D5000F6E08491882341F09091C00095FFFCCF4C
:104D60008093C6003196F5CF8FEF9FEF0E943B4DA9
:104D7000BC01882777FD8095982F0E94775B26EAF3
:104D800034E048E551E40E94135D20E030E04EEF4E
:104D900052E40E94DC5AAB01BC0122E030E08BE916
:104DA00096E00E94B934E8E5F6E08491882341F06A
:104DB0009091C00095FFFCCF8093C6003196F5CF4F
:104DC0008091C00085FFFCCF8AE08093C6000C94E0
:104DD00051328DE690E02AD881110C94FA3010926D
:104DE000F90B83E50E94A715882391F000918E04AA
:104DF0000E949E1510E0000F111F0A5E124F0E94C4
:104E0000445BF8017183608381E08093060215C0E2
:104E100082E50E94A715882381F000918E040E94EC
:104E20009E1510E0000F111F0A5E124F0E94445B96
:104E3000F801718360831092060283E50E94A71532
:104E4000882351F00E949E15609381027093820224
:104E5000809383029093840282E40E94A7158823A2
:104E600051F00E949E156093850270938602809394
:104E700087029093880286E40E94A715882369F030
:104E80000E949E1560937D0270937E0280937F0244
:104E90009093800281E08093F90B0E945C4F0E9406
:104EA0008A574B015C0100918E0410E0F801EE0F6F
:104EB000FF1FEA5EF24F60817181882777FD809540
:104EC000982F0E94775BF801EE0FFF1FEE0FFF1F78
:104ED000E25FF24F11E020813181428153810E94D3
:104EE000D85C18160CF010E010938C041092610638
:104EF000CC24CA94DC2C760148EE442E43E0542E98
:104F0000612C712C5AE0352E8091610681110C9430
:104F10001332FFEFCF16DF06EF06FF0611F40C94F5
:104F20000431F7FE02C00C9413320E948A576C19A8
:104F30007D09683B7B4010F40C9404310C941332CF
:104F400083E50E94A715882361F00E949E150E94A8
:104F5000445B7093150D6093140D81E080930602FD
:104F60000FC082E50E94A715882351F00E949E156C
:104F70000E94445B7093150D6093140D109206020D
:104F80000E948A574B015C01109261066091140DDA
:104F90007091150D882777FD8095982F0E94775B7B
:104FA00011E02091080D3091090D40910A0D5091AA
:104FB0000B0D0E94D85C18160CF010E010938C04B6
:104FC0000AE416E056E4E52E56E0F52E62E4C62E1D
:104FD00066E0D62E7AE0772E80918C046091140DD5
:104FE0007091150D882309F489C0809161068111A3
:104FF00085C0882777FD8095982F0E94775B209148
:10500000080D3091090D40910A0D50910B0D0E9431
:10501000D85C18160CF089C00E948A576819790963
:105020008A099B09693E73408105910508F460C0B7
:10503000E091700684E0E89FF0011124E25FF24FF6
:105040004081518162817381F8018491EAE4F6E044
:10505000882349F09091C00095FFFCCF8093C60053
:1050600031968491F5CF22E030E08BE996E00E9402
:10507000B934F7018491E6E4F6E0882349F0909191
:10508000C00095FFFCCF8093C60031968491F5CF88
:105090006091700670E04AE050E08BE996E00E9473
:1050A000E333F6018491E2E4F6E0882349F090913D
:1050B000C00095FFFCCF8093C60031968491F5CF58
:1050C0004091080D5091090D60910A0D70910B0DE2
:1050D00021E030E08BE996E00E94B9348091C00075
:1050E00085FFFCCF7092C6000E948A574B015C017D
:1050F0000E94464D80E00E945F1E6ECF882777FD9C
:105100008095982F0E94775B2091080D3091090DB2
:1051100040910A0D50910B0D0E94D55A87FF05C092
:1051200080910602882309F477CF0E948A57609302
:105130009B0470939C0480939D0490939E040C9414
:10514000FA300E94634C83E50E94A715882319F169
:105150000E949E1520E030E0A9010E94D55A87FDEB
:105160000FC00E949E1520E030E04FE753E40E94FC
:10517000D85C181644F00E949E150E94445B05C03E
:1051800060E070E002C06FEF70E070936F066093B4
:105190006E060C94FA308FEF90E090936F06809338
:1051A0006E060C94FA300E94634C10926F061092B7
:1051B0006E060C94FA30269A2E980C94FA300E94BF
:1051C0005D4F0E94634C129A0E94CA4C10926F0667
:1051D00010926E0668EE73E080E090E00E94B9578E
:1051E000269A2E9A0C94FA3081E080939A060C94B9
:1051F000FA3083E50E94A715882399F00E949E1536
:1052000020E030E04AE754E40E94135D0E94495BCD
:1052100060930702709308028093090290930A0238
:10522000E9C788E50E94A71581110C94283289E509
:105230000E94A71581110C9428328AE50E94A715B7
:1052400081110C94283285E40E94A71581110C94D9
:1052500028320E94634C129A0E94CA4CCBC783E545
:105260000E94A715882309F4C5C70E949E1520E057
:1052700030E04AE754E40E94135D0E94495B60936A
:105280009704709398048093990490939A04B2C7FA
:1052900027E034E038A32F8F0AE51CE03AE6832E9E
:1052A0003CE0932E4EE1A42E4CE0B42E312CEF8D39
:1052B000F8A18191F8A3EF8F0E94A715882309F424
:1052C0005BC0F3E03F1251C00E949E156B017C0150
:1052D00020E030E040EA51E40E94D55A87FF3FC009
:1052E000A7019601F80160817181828193810E94FA
:1052F000DC5A2B013C019B01AC016091320C709196
:10530000330C8091340C9091350C0E94135D6093A6
:10531000320C7093330C8093340C9093350CA301B2
:105320009201F40160817181828193810E94135DF9
:10533000F4016083718382839383F50160817181BD
:10534000828193810E94755BA30192010E94135D8B
:105350000E94495BF5016083718382839383F80126
:10536000C082D182E282F38207C00E949E15F801BA
:10537000608371838283938333940C5F1F4FF4E0C7
:105380008F0E911C24E0A20EB11C34E033128FCF9B
:1053900031C79091C00095FFFCCF8093C600319635
:1053A00084918111F6CF26C780919F049091A0042B
:1053B0006AE270E005960E944961009709F41AC7F5
:1053C000FC01108217C7EBE6F5E08491882341F0D9
:1053D0009091C00095FFFCCF8093C6003196F5CF29
:1053E00040918406509185066091860670918706EB
:1053F00022E030E08BE996E00E94B934E7E6F5E080
:105400008491882341F09091C00095FFFCCF809358
:10541000C6003196F5CF409188065091890660917B
:105420008A0670918B0622E030E08BE996E00E94BC
:10543000B934E3E6F5E08491882341F09091C0000F
:1054400095FFFCCF8093C6003196F5CF40918C0636
:1054500050918D0660918E0670918F0622E030E0AB
:105460008BE996E00E94B934EFE5F5E0849188235A
:1054700041F09091C00095FFFCCF8093C60031961B
:10548000F5CF4091900650919106609192067091EF
:10549000930622E030E08BE996E00E94B934E4E51F
:1054A000F5E08491882341F09091C00095FFFCCFF6
:1054B0008093C6003196F5CF0E94BC4C0E94775B6A
:1054C00020915A0C30915B0C40915C0C50915D0C1A
:1054D0000E94DC5AAB01BC0122E030E08BE996E08F
:1054E0000E94B934E0E5F5E08491882341F0909181
:1054F000C00095FFFCCF8093C6003196F5CF81E0C8
:105500000E94BC4C0E94775B20915E0C30915F0C36
:105510004091600C5091610C0E94DC5AAB01BC01BF
:1055200022E030E08BE996E00E94B934ECE4F5E04B
:105530008491882341F09091C00095FFFCCF809327
:10554000C6003196F5CF82E00E94BC4C0E94775B8A
:105550002091620C3091630C4091640C5091650C69
:105560000E94DC5AAB01BC0122E030E08BE996E0FE
:105570000E94B9348091C00085FFFCCF8AE08093FF
:10558000C600E2E4F5E08491882341F09091C000E8
:1055900095FFFCCF8093C6003196F5CF409145062C
:1055A00050914606609147067091480622E030E02F
:1055B0008BE996E00E94B934E8E3F5E08491882312
:1055C00041F09091C00095FFFCCF8093C6003196CA
:1055D000F5CF4091490650914A0660914B06709173
:1055E0004C0622E030E08BE996E00E94B934EFE20D
:1055F000F5E08491882341F09091C00095FFFCCFA5
:105600008093C6003196F5CF40914D0650914E06DD
:1056100060914F067091500622E030E08BE996E0F1
:105620000E94B9348091C00085FFFCCF8AE080934E
:10563000C600E0C581E00E949644DCC59091C000A0
:1056400095FFFCCF8093C60081918111F7CF8091A7
:10565000C00085FFFCCF8AE08093C600E7E2F5E05A
:105660008491882341F09091C00095FFFCCF8093F6
:10567000C6003196F5CF659903C0E6E5F3E009C0B1
:10568000E0E6F3E006C09091C00095FFFCCF809368
:10569000C60081918111F7CF8091C00085FFFCCFBA
:1056A0008AE08093C600EFE1F5E08491882341F021
:1056B0009091C00095FFFCCF8093C6003196F5CF46
:1056C000649903C0E6E5F3E009C0E0E6F3E006C054
:1056D0009091C00095FFFCCF8093C600819181110D
:1056E000F7CF8091C00085FFFCCF8AE08093C60091
:1056F000E7E1F5E08491882341F09091C00095FFA7
:10570000FCCF8093C6003196F5CF8091030181FDD7
:1057100003C0E6E5F3E009C0E0E6F3E006C09091DF
:10572000C00095FFFCCF8093C60081918111F7CF17
:105730008091C00085FFFCCF8AE08093C600EFE037
:10574000F5E08491882341F09091C00095FFFCCF53
:105750008093C6003196F5CF8091030180FD03C090
:10576000E6E5F3E009C0E0E6F3E006C09091C00092
:1057700095FFFCCF8093C60081918111F7CF809176
:10578000C00085FFFCCF8AE08093C600E7E0F5E02B
:105790008491882341F09091C00095FFFCCF8093C5
:1057A000C6003196F5CF4B9903C0E6E5F3E009C09A
:1057B000E0E6F3E006C09091C00095FFFCCF809337
:1057C000C60081918111F7CF8091C00085FFFCCF89
:1057D0008AE08093C600EFEFF4E08491882341F0E3
:1057E0009091C00095FFFCCF8093C6003196F5CF15
:1057F0004A9903C0E6E5F3E009C0E0E6F3E006C03D
:105800009091C00095FFFCCF8093C60081918111DB
:10581000F7CF8091C00085FFFCCF8AE08093C6005F
:10582000E9C48091700680938E0484E50E94A715D8
:10583000882311F10E949E150E94495B60938E049B
:105840006623D1F0E1EDF8E08491882341F0909156
:10585000C00095FFFCCF8093C6003196F5CFE0E8FD
:10586000F3E08191882309F4C5C49091C00095FFAD
:10587000FCCF8093C600F5CF84E40E94A71588234F
:1058800009F4B8C40E949E1520E030E0A9010E94EE
:10589000D55A811103C01092940632C000918E0433
:1058A00010E00E949E15F801EE0FFF1FEE0FFF1F84
:1058B000ED59FD4F6083718382839383E09063028F
:1058C000F0906402009165021091660220E030E0E1
:1058D000A901B701C8010E94D55A811104C0E12C69
:1058E000F12C00E410E4C701D80180936302909387
:1058F0006402A0936502B093660281E080939406EF
:105900000E94D11F77C407E014E09AE4E92E9CE0DE
:10591000F92EF80181918F010E94A715882349F083
:105920000E949E150E94495BF70160837183828308
:105930009383F4E0EF0EF11C24E00B30120749F7DB
:105940000E94BF4357C4F4E0EF0EF11C24E00B307B
:10595000120709F44FC4F80181918F010E94A71525
:10596000882389F30E949E15F701608371838283E7
:105970009383E9CF83E50E94A715882351F00E9405
:105980009E156093420C7093430C8093440C90934B
:10599000450C84E50E94A715882309F42BC40E94B6
:1059A0009E1560933E0C70933F0C8093400C909337
:1059B000410C20C483E50E94A715882351F00E9462
:1059C0009E156093460C7093470C8093480C9093FF
:1059D000490C84E50E94A715882351F00E949E156A
:1059E00060932E0C70932F0C8093300C9093310C9D
:1059F00082E40E94A715882361F00E949E150E94F0
:105A0000495B60937A0C70937B0C80937C0C909331
:105A10007D0C88E50E94A715882351F00E949E15F1
:105A200060933A0C70933B0C80933C0C90933D0C2C
:105A30008AE50E94A715882351F00E949E15609365
:105A4000360C7093370C8093380C9093390C85E4A6
:105A50000E94A715882309F4CDC30E949E15609368
:105A6000320C7093330C8093340C9093350CC2C37A
:105A7000F4E0EF0EF11C24E00A30120779F0F8018F
:105A800081918F010E94A715882391F30E949E1592
:105A9000F7016083718382839383EACF84E50E9458
:105AA000A715882351F00E949E1560937806709385
:105AB000790680937A0690937B0680E50E94A7156D
:105AC000882309F497C30E949E1560937C06709307
:105AD0007D0680937E0690937F068CC383E50E94AB
