:100000000C949D0C0C94CE0C0C94CE0C0C94CE0C39
:100010000C94CE0C0C94CE0C0C94CE0C0C94CE0CF8
:100020000C94CE0C0C94CE0C0C94CE0C0C94CE0CE8
:100030000C94CE0C0C94CE0C0C94CE0C0C94CE0CD8
:100040000C94CE0C0C941E5C0C94CE0C0C94CE0C28
:100050000C94CE0C0C94CE0C0C942B680C94246E47
:100060000C94CE0C0C94D00C0C94CE0C0C94CE0CA6
:100070000C94CE0C0C94CE0C0C94CE0C0C94CE0C98
:100080000C94CE0C0C94CE0C0C94CE0C0C94CE0C88
:100090000C94CE0C0C94CE0C0C94CE0C0C94CE0C78
:1000A0000C94CE0C0C94CE0C0C94CE0C0C94CE0C68
:1000B0000C94CE0C0C94CE0C0C94CE0C0C94CE0C58
:1000C0000C94CE0C0C94CE0C0C94CE0C0C94CE0C48
:1000D0000C94CE0C0C94CE0C0C94CE0C0C94CE0C38
:1000E0000C94CE0C476F4C6F516F5B6F656FDE6F7A
:1000F0006F6F776F7F6F896F936F9D6FAC6FB66F08
:10010000DE6FC06FCA6FD46FFF6F0270F16FF56F53
:10011000FB6F397006700A701070147018701E70C2
:100120002270267039702C7030703470084AD73BBA
:100130003BCE016E84BCBFFDC12F3D6C74319ABDB6
:1001400056833DDA3D00C77F11BED9E4BB4C3E91DA
:100150006BAAAABE000000803F072C7AA5BA6CC526
:1001600090DA3B9365FC8BBC53F810FD3C569283B0
:100170004DBD879D3AB63DCBC9BF5BBE73DA0FC993
:100180003F05A84CCDB2D44EB93836A9020C50B9AF
:10019000918688083CA6AAAA2ABE000000803F00DB
:1001A0002020506C616E6E657242756666657242A3
:1001B000797465733A20002046726565204D656D3F
:1001C0006F72793A2000436F6D70696C65643A20F4
:1001D0004D617920313920323031380A00207C20BD
:1001E000417574686F723A20286E6F6E652C2064BA
:1001F000656661756C7420636F6E666967290A00B5
:10020000323031372D31322D32352031323A3030E3
:1002100000204C61737420557064617465643A20E9
:1002200000312E312E380A004D61726C696E00204B
:10023000536F6674776172652052657365740A0046
:10024000205761746368646F672052657365740A30
:10025000002042726F776E206F757420526573654F
:10026000740A002045787465726E616C2052657363
:1002700065740A00506F77657255700A0073746177
:1002800072740A005072696E7465722068616C74D1
:1002900065642E206B696C6C28292063616C6C6529
:1002A00064210A004B494C4C45442E20004B494CDC
:1002B0004C2063617573656420627920746F6F20D0
:1002C0006D75636820696E61637469766520746911
:1002D0006D65202D2063757272656E7420636F6D7D
:1002E0006D616E643A200020746F6F206C6F6E67D2
:1002F00020657874727573696F6E207072657665AB
:100300006E7465640A0020636F6C64206578747293
:100310007573696F6E2070726576656E7465640AB8
:10032000006F6B00526573656E643A20004E6F205B
:1003300063617365206C696768740A00546F6F208D
:100340006661722066726F6D207265666572656E99
:10035000636520706F696E740A002043616C3A20F7
:1003600054686574612D5073692039300A00204348
:10037000616C3A205073692039300A002043616C67
:100380003A2050736920300A002043616C3A2054AF
:10039000686574612039300A002043616C3A20544A
:1003A0006865746120300A0043290A0061626C6547
:1003B0006420286D696E2074656D702000436F6C39
:1003C00064206578747275646573206172652000BD
:1003D00020643A0020693A0020703A0020643A0014
:1003E00020693A0020703A00205A00205900580035
:1003F00020204D61783A2000205A002059005800F2
:1004000020204D696E3A20004F6666004F6E200036
:10041000536F667420656E6473746F70733A200056
:1004200053657474696E672054726176656C2041FF
:100430006363656C65726174696F6E3A2000536521
:100440007474696E672052657472616374204163CD
:1004500063656C65726174696F6E3A2000536574F0
:1004600074696E67205072696E7420416363656CB5
:1004700065726174696F6E3A200053657474696EB9
:1004800067205072696E7420616E642054726176C8
:10049000656C20416363656C65726174696F6E3A67
:1004A00020002F2F20003A004361703A00454D454F
:1004B0005247454E43595F504152534552004341C4
:1004C00053455F4C494748545F4252494748544E50
:1004D00045535300544F47474C455F4C4947485498
:1004E0005300534F4654574152455F504F57455262
:1004F000004255494C445F50455243454E54004CD0
:100500004556454C494E475F44415441005A5F505F
:10051000524F4245004155544F4C4556454C0050B2
:1005200052494E545F4A4F420050524F4752455332
:1005300053004155544F5245504F52545F54454D0E
:100540005000564F4C554D45545249430045455077
:10055000524F4D0053455249414C5F584F4E5F58E2
:100560004F4646004649524D574152455F4E414D18
:10057000453A4D61726C696E20312E312E3820283B
:100580004769746875622920534F555243455F434C
:100590004F44455F55524C3A68747470733A2F2F2C
:1005A0006769746875622E636F6D2F4D61726C6937
:1005B0006E4669726D776172652F4D61726C696EFE
:1005C0002050524F544F434F4C5F56455253494F62
:1005D0004E3A312E30204D414348494E455F5459E3
:1005E00050453A3344205072696E74657220455804
:1005F0005452554445525F434F554E543A3120555D
:100600005549443A63656465326132662D3431611F
:10061000322D343734382D396231322D633535631C
:1006200036326633363766660A0020573A006F6BFB
:10063000004D3131332053004B494C4C45442E2062
:10064000004543484F00494E464F004552524F52D5
:10065000530044525952554E00434F4D4D554E494B
:10066000434154494F4E006F666600410646064BB3
:10067000065206590644454255473A0000013637AE
:100680002603FF3C3D380EFF2E303E12FFFF0C08C4
:1006900009FFFFFF1A1C18FFFF08440AFF43FFFF72
:1006A000FFFFFFFF50726F746563746564205069CB
:1006B0006E0A002569730025696D20256973002580
:1006C00069682025696D20256973002569642025E6
:1006D00069682025696D20256973002569792025C1
:1006E0006964202569682025696D2025697300509B
:1006F00072696E742074696D653A200047322F4725
:10070000332062616420706172616D65746572731B
:100710000A00416374697665204578747275646572
:10072000723A20002020205073692B546865746150
:100730003A0053434152412054686574613A0020A5
:10074000453A00205A3A0020593A00583A00576179
:10075000726E696E673A20486F6D696E67204275E8
:100760006D702044697669736F72203C20310A00F5
:10077000020204627573793A2070617573656420B2
:10078000666F7220696E7075740A00627573793ACB
:100790002070617573656420666F72207573657271
:1007A0000A00627573793A2070726F6365737369BA
:1007B0006E670A002066697273740A005A00590055
:1007C0005800486F6D65200020496E76616C696441
:1007D00020657874727564657220004B494C4C45F5
:1007E000442E20005072696E7465722073746F70AD
:1007F0007065642064756520746F206572726F7215
:10080000732E2046697820746865206572726F7255
:1008100020616E6420757365204D39393920746FFD
:1008200020726573746172742E202854656D706532
:100830007261747572652069732072657365742EB8
:100840002053657420697420616674657220726536
:100850007374617274696E67290A004E6F20436871
:1008600065636B73756D2077697468206C696E655C
:10087000206E756D6265722C204C617374204C691A
:100880006E653A2000636865636B73756D206D69F2
:10089000736D617463682C204C617374204C696EB5
:1008A000653A20004C696E65204E756D6265722058
:1008B0006973206E6F74204C617374204C696E658F
:1008C000204E756D6265722B312C204C6173742043
:1008D0004C696E653A20004D31313000656E71759E
:1008E000657565696E672022000101FF00004040C8
:1008F00000004040000040400000484300004843E2
:1009000066E660430000B0C1000050C2CDCCCC3DD3
:10091000000048430000484300006143000000001D
:1009200000000000CDCCCC3D000020420000204261
:100930000000204100000000204400204900202049
:100940004D33303420500020440020490020204DF9
:100950003330312050005049442073657474696EFF
:1009600067733A0A00205A0020590020204D323087
:1009700036205800486F6D65206F66667365743A5F
:100980000A00204500205A0020590020580020422B
:100990000020540020204D32303520530041647631
:1009A000616E6365643A20533C6D696E5F66656590
:1009B00064726174653E20543C6D696E5F7472614F
:1009C00076656C5F66656564726174653E20423C65
:1009D0006D696E5F7365676D656E745F74696D6573
:1009E0005F75733E20583C6D61785F78795F6A650A
:1009F000726B3E205A3C6D61785F7A5F6A65726BFC
:100A00003E20453C6D61785F655F6A65726B3E0AAA
:100A10000020540020520020204D3230342050005D
:100A2000416363656C65726174696F6E2028756ED1
:100A30006974732F7332293A20503C7072696E7456
:100A40005F616363656C3E20523C726574726163E2
:100A5000745F616363656C3E20543C7472617665BB
:100A60006C5F616363656C3E0A00204500205A009C
:100A700020590020204D3230312058004D617869D6
:100A80006D756D20416363656C65726174696F6E2D
:100A90002028756E6974732F7332293A0A00204535
:100AA00000205A0020590020204D323033205800B9
:100AB0004D6178696D756D206665656472617465F8
:100AC000732028756E6974732F73293A0A002045C4
:100AD00000205A0020590020204D39322058005360
:100AE000746570732070657220756E69743A0A00BF
:100AF00020204D3230302044300A0020204D32304A
:100B0000302044002044697361626C65640A0046C9
:100B1000696C616D656E742073657474696E67735A
:100B20003A002020473231202020203B20556E699A
:100B3000747320696E206D6D0A0048617264636F82
:100B40006465642044656661756C742053657474D3
:100B5000696E6773204C6F616465640A002C010044
:100B6000002C01000014000000E8030000000096C3
:100B700043000096430000F0410000C841295CE3B7
:100B800042295CE3424861E34200007A4445455013
:100B9000524F4D2064697361626C65640A007A5F2C
:100BA0006D696E3A2000795F6D696E3A2000785F5A
:100BB0006D696E3A20005265706F7274696E6720BD
:100BC000656E6473746F70207374617475730A005A
:100BD000205A3A0020593A0020583A00656E647352
:100BE000746F7073206869743A2000556E6B6E6F75
:100BF000776E20636F6D6D616E643A202200207401
:100C00006F6F206C6F6E6720657874727573696F93
:100C10006E2070726576656E7465640A0020636F7D
:100C20006C6420657874727573696F6E207072657C
:100C300076656E7465640A006563686F3A00457294
:100C4000726F723A00205A3A0020423A0020436FF5
:100C5000756E7420413A0024F4D43050C38E20C203
:100C6000A24017828B7011127A910D816CD90AA85B
:100C700061E108C7586607615143061E4B5D05C117
:100C800045A7041A411104093D9803713931034005
:100C900036DB0265339102D4305402802E1D02638C
:100CA0002CEE01752AC501B028A001102781018F03
:100CB0002564012B244B01E0223401AC211F018D5E
:100CC000200D01801FFC00841EED00971DDF00B881
:100CD0001CD200E61BC600201BBC00641AB200B286
:100CE00019A8000A19A0006A189900D117910040AC
:100CF000178B00B516840031167E00B31579003AC3
:100D0000157300C7146F0058146A00EE136600884C
:100D100013630025135E00C7125B006C12570015A9
:100D2000125400C111510070114F0021114B00D617
:100D30001049008D1047004610440002104200C0C8
:100D40000F4000800F3E00420F3C00060F3B00CBDF
:100D50000E3800930E37005C0E3500270E3400F37A
:100D60000D3200C10D3100900D3000600D2E0032AB
:100D70000D2D00050D2C00D90C2B00AE0C29008583
:100D80000C29005C0C2700350C27000E0C2600E80F
:100D90000B2400C40B2400A00B23007D0B23005A5E
:100DA0000B2100390B2100180B2000F80A1F00D975
:100DB0000A1E00BB0A1E009D0A1D00800A1D00635A
:100DC0000A1C00470A1B002C0A1B00110A1A00F714
:100DD000091A00DD091900C4091900AB09190092AC
:100DE0000917007B091800630917004C0916003623
:100DF000091600200916000A091500F5081500E07B
:100E0000081400CC081400B8081400A408140090BA
:100E10000813007D0812006B0813005808120046E2
:100E200008120034081100230811001208110001F3
:100E3000081100F0071000E0071000D0071000C0F4
:100E4000071000B0070F00A107100091070E0083E4
:100E5000070F0074070F0065070E0057070E0049C3
:100E6000070E003B070D002E070E0020070D001394
:100E7000070D0006070D00F9060C00ED060D00E059
:100E8000060C00D4060C00C8060C00BC060C00B012
:100E9000060C00A4060B0099060C008D060B0082C0
:100EA000060B0077060B006C060B0061060A005764
:100EB000060B004C060A0042060A0038060A002EFD
:100EC000060A0024060A001A060A0010060900078E
:100ED000060A00FD050900F4050900EB050900E21A
:100EE000050900D9050900D0050900C7050900BE9C
:100EF000050900B5050800AD050800A50509009C19
:100F0000050800940508008C050800840508007C8D
:100F1000050800740508006C050700650508005DFC
:100F2000050700560508004E050700470507004065
:100F300005080038050700310507002A05070023CA
:100F40000507001C050600160507000F0507000829
:100F500005060002050700FB040600F5040700EE85
:100F6000040600E8040600E2040700DB040600D5DE
:100F7000040600CF040600C9040600C3040600BD31
:100F8000040600B7040600B1040500AC040600A680
:100F9000040600A00405009B0406009504050090CB
:100FA0000406008A04050085040500800406007A12
:100FB00004050075040500700405006B0405006657
:100FC000040500610405005C040500570405005297
:100FD0000405004D04050048040500430405003ED7
:100FE0000404003A04050035040500300404002C14
:100FF00004050027040400230405001E0404001A4D
:1010000004040016040500110404000D0404000982
:101010000405000404040000040400FC030400F8B8
:10102000030400F4030400F0030400EC030400E8EC
:10103000030400E4030400E0030400DC030400D81C
:10104000030400D4030400D0030400CC030400C84C
:10105000030300C503030024F404D9201BC40C5C63
:101060000E9804C4095F0265077101F405F900FBDD
:1010700004B30048048700C1036900580355000306
:10108000034500BE023A008402310053022A0029BF
:1010900002250004022000E4011C00C8011900AF71
:1010A0000117009801140084011300710110006100
:1010B00001100051010E0043010D0036010B002B01
:1010C000010B0020010B00150109000C01090003B0
:1010D000010800FB000800F3000800EB000700E433
:1010E000000600DE000600D8000600D2000600CC94
:1010F000000500C7000500C2000500BD000400B9DE
:10110000000400B5000400B1000400AD000400A913
:10111000000400A5000300A20003009F0004009B40
:101120000003009800030095000200930003009064
:101130000003008D0002008B00030088000200867F
:1011400000020084000300810002007F0002007D95
:101150000002007B000200790002007700010076A7
:101160000002007400020072000100710002006FB2
:101170000002006D0001006C0002006A00010069BD
:1011800000020067000100660001006500010064C4
:101190000002006200010061000100600001005FC8
:1011A0000002005D0001005C0001005B0001005ACC
:1011B00000010059000100580001005700010056CD
:1011C00000010055000100540001005300000053CD
:1011D0000001005200010051000100500001004FC9
:1011E0000001004E0000004E0001004D0001004CC7
:1011F0000001004B0000004B0001004A00010049C3
:1012000000010048000000480001004700010046BE
:1012100000000046000100450000004500010044B8
:1012200000010043000000430001004200000042B2
:101230000001004100000041000100400001003FAA
:101240000000003F0001003E0000003E0001003DA4
:101250000000003D0001003C0000003C0000003C9C
:101260000001003B0000003B0001003A0000003A92
:10127000000100390000003900010038000000388A
:101280000000003800010037000000370001003680
:101290000000003600000036000100350000003577
:1012A000000000350001003400000034000000346C
:1012B0000001003300000033000000330001003261
:1012C0000000003200000032000100310000003157
:1012D000000000310001003000000030000000304C
:1012E0000001002F0000002F0000002F0000002F41
:1012F0000001002E0000002E0000002E0001002D35
:101300000000002D0000002D0000002D0001002C29
:101310000000002C0000002C0000002C0001002B1D
:101320000000002B0000002B0000002B0001002A11
:101330000000002A0000002A0000002A0001002905
:1013400000000029000000290000002900000029F9
:1013500000010028000000280000002800000028EC
:1013600000000028000100270000002700000027DF
:1013700000000027000000270001002600000026D2
:1013800000000026000000260000002600010025C5
:1013900000000025000000250000002500000025B9
:1013A00000000025000100240000002400000024AB
:1013B000000000240000002400010023000000239E
:1013C0000000002300000023000000230000002391
:1013D0000000002300010022000000220000002283
:1013E0000000002200000022000000220001002175
:1013F0000000002100000021000000210000002169
:101400000000002100000021000100200000002059
:10141000000000200000002000000020000000204C
:1014200000000020000000200001001F0000001F3D
:101430000000001F0000001F0000001F0000001F30
:101440000000001F0001001E0000001E0000001E22
:101450000000001E0000002042403A0020403A00F8
:10146000202F00546865726D616C2052756E617733
:10147000617900544845524D414C2052554E4157D8
:101480004159004B494C4C45442E2000202D204909
:101490006E76616C6964206578747275646572201B
:1014A0006E756D62657220210A0048656174696E0F
:1014B00067206661696C65640048656174696E6780
:1014C000206661696C65640048656174696E6720B7
:1014D0006661696C65640048656174696E67206661
:1014E00061696C6564004D494E54454D50207472DD
:1014F00069676765726564004572723A204D494EAE
:1015000054454D5020424544004572723A204D49A1
:101510004E54454D50004D415854454D5020747225
:1015200069676765726564004572723A204D41587B
:1015300054454D5020424544004572723A204D4179
:101540005854454D50006265640A002C207379732D
:1015500074656D2073746F707065642120486561D7
:101560007465725F49443A20004B6420002364652F
:1015700066696E65202044454641554C545F004BDA
:1015800069200023646566696E65202044454641F4
:10159000554C545F004B70200023646566696E658E
:1015A000202044454641554C545F00504944204159
:1015B00075746F74756E652066696E6973686564AD
:1015C000212050757420746865206C617374204B01
:1015D000702C204B6920616E64204B6420636F6E19
:1015E0007374616E74732066726F6D2062656C6FC8
:1015F0007720696E746F20436F6E666967757261DC
:1016000074696F6E2E680A00504944204175746FEA
:1016100074756E65206661696C6564212074696DFE
:10162000656F75740A00546865726D616C2052753F
:101630006E6177617900544845524D414C205255B6
:101640004E415741590048656174696E6720666173
:10165000696C65640048656174696E6720666169DC
:101660006C656400504944204175746F74756E65F3
:10167000206661696C6564212054656D70657261D6
:101680007475726520746F6F20686967680A00203E
:101690004B643A2000204B693A2000204B703A20DE
:1016A000000A20436C617373696320504944200A27
:1016B000002054753A2000204B753A2000206D61BF
:1016C000783A2000206D696E3A200020643A2000AC
:1016D00020626961733A200070012C01900127019A
:1016E000B0012201C0011D01F00118011002130117
:1016F00030020E016002090190020401C002FF00E5
:101700000003FA004003F5008003F000D003EB0073
:101710002004E6007004E100E004DC004005D7008E
:10172000C005D2004006CD00D006C8008007C30027
:101730003008BE00F008B900C009B400B00AAF001C
:10174000B00BAA00D00CA500000EA000500F9B000B
:10175000C01096005012910000148C00C015870034
:10176000B0178200B0197D00D01B7800001E7300F6
:1017700040206E0090226900F024640040275F0042
:1017800090295A00E02B5500102E500020304B00BD
:1017900010324600E033410090353C0010373700EE
:1017A00070383200A0392D00B03A2800A03B230049
:1017B000603C1E00103D1900903D1400103E0F00CB
:1017C000703E0A00C03E0500003F0000403FFBFFA6
:1017D000803FF6FFC03FF1FF00000A0B02090C0D2D
:1017E0000E080703040100000000000000000000D4
:1017F00000000000000000000000000000000000E9
:1018000000000000121110000000000000000000A5
:1018100000000000000000000000000000000102C5
:1018200010202008081020401020408002010201F2
:1018300008040201010204081020408080402010AA
:101840000804020180040201804020100804020103
:10185000080402010102040810204080010204086B
:101860001020408005050505070508080808020244
:1018700002020A0A0808040404040101010101012A
:1018800001010303030303030303040707070C0C0D
:101890000C0C0C0C0C0C02020202060606060606D4
:1018A00006060B0B0B0B0B0B0B0B00002000230091
:1018B000260029002C002F00320000010000030147
:1018C0000601090100002200250028002B002E003F
:1018D0003100340002010000050108010B01000085
:1018E0002100240027002A002D00300033000101D0
:1018F0000000040107010A014E414E494E49545966
:10190000494E46CDCCCC3D0AD7233C17B7D13877CA
:10191000CC2B329595E6241FB14F0A0000204100E0
:1019200000C84200401C4620BCBE4CCA1B0E5AAE2A
:10193000C59D7400CE395A406C5411241FBECFEFA0
:10194000D1E2DEBFCDBF00E00CBF12E0A0E0B2E00C
:10195000EEEAF8EF00E00BBF02C007900D92AE3D3B
:10196000B107D9F72CE0AEEDB2E001C01D92AC3961
:10197000B207E1F719E1CAE3D9E100E006C0229716
:101980000109FE010BBF0E946675C433D10780E0D8
:101990000807A9F70E94D1700C94557C0C940000A4
:1019A0001F920F920FB60F9211240BB60F922F9326
:1019B0008F939F93EF93FF93E0915E0381E08E0FEF
:1019C0008F779091C60020915F03821731F0F0E08D
:1019D000E252FD4F908380935E03FF91EF919F91C0
:1019E0008F912F910F900BBE0F900FBE0F901F90F5
:1019F00018959B01AC01211581EE38074105510571
:101A000049F182E08093C00060E079E08DE390E0EE
:101A10000E942B752150310941095109CA01B901B0
:101A200022E030E040E050E00E942B753093C5008A
:101A30002093C4008091C10080618093C100809197
:101A4000C10088608093C1008091C100806880934C
:101A5000C10008951092C00020E130E0E7CF3FB709
:101A6000F89420915F0380915E03821759F0E22F72
:101A7000F0E0E252FD4F808190E02F5F2F772093BE
:101A80005F0302C08FEF9FEF3FBF08958FB7F894B9
:101A900090915F0390935E038FBF08959091C00073
:101AA00095FFFCCF8093C6000895F8CFAF92BF9208
:101AB000CF92DF92EF92FF920F931F93CF93DF931A
:101AC000CDB7DEB7A0970FB6F894DEBF0FBECDBF7F
:101AD0006115710581059105A9F1B12CC42ED12C98
:101AE000E12CF12CAA24A394AB0C01E010E00C0F24
:101AF0001D1F0B0D111DB7FC1A95A70196010E9421
:101B00000975F8016083B901CA0161157105810584
:101B1000910511F41B2D11C0BA2CE4CFE1E0F0E0E7
:101B2000EC0FFD1FE10FF11D17FDFA9580818A3042
:101B300038F490E3890FB2DF11501F3F79F714C0DA
:101B400097E3F8CF80E3A0960FB6F894DEBF0FBE00
:101B5000CDBFDF91CF911F910F91FF90EF90DF905C
:101B6000CF90BF90AF909ACFA0960FB6F894DEBFFB
:101B70000FBECDBFDF91CF911F910F91FF90EF90DE
:101B8000DF90CF90BF90AF9008954115510511F4AB
:101B9000862F84CF8BCFAB01682F70E080E090E080
:101BA000F4CFAB01BC0180E090E0EFCFCF92DF92A9
:101BB000EF92FF926B017C0197FF0AC08DE26EDF0E
:101BC000F094E094D094C094C11CD11CE11CF11C91
:101BD0004AE0C701B601FF90EF90DF90CF9066CF4B
:101BE0004115510511F4862F59CF4A30510509F49A
:101BF000DDCF5CCFAB01BC01882777FD8095982FA6
:101C0000EFCF8DE04BDF8AE049CFAB01BC0180E034
:101C100090E0BBDFF6CF8F929F92AF92BF92CF92B0
:101C2000DF92EF92FF92CF936B017C01B42E20E004
:101C300030E0A9010E94C77187FF06C08DE22EDF48
:101C4000F7FAF094F7F8F094C0E060E070E080E01C
:101C50009FE3CB1541F02DEC3CEC4CEC5DE30E9496
:101C60002074CF5FF6CF9B01AC01C701B6010E9483
:101C7000EE706B017C010E943B724B015C014AE0FB
:101C800015DFCC2381F1C501B4010E9467729B016D
:101C9000AC01C701B6010E94ED706B017C018EE2C0
:101CA000FDDE20E030E040E251E4C701B6010E94D1
:101CB00020746B017C010E9436724B01AA2497FCB0
:101CC000A094BA2CC501B40171DFC501B4010E9412
:101CD00069729B01AC01C701B6010E94ED706B01F6
:101CE0007C01C150F1F6CF91FF90EF90DF90CF9043
:101CF000BF90AF909F908F9008958DCF880F991FC0
:101D0000880F991F8C5F964FFC01659175918591A5
:101D100094910895EF92FF920F931F93CF93DF93C7
:101D20001F92CDB7DEB7082F162FE8EAF4E08491B2
:101D30007F012FEFE21AF20A882329F09983B5DE9A
:101D4000F7019981F4CFE02FF92F84917F019FEF64
:101D5000E91AF90A882319F0A8DEF701F6CFE6EAB6
:101D6000F4E084917F01AFEFEA1AFA0A882319F0B0
:101D70009CDEF701F6CF6AE070E0812F90E03ADF59
:101D80008AE00F90DF91CF911F910F91FF90EF901C
:101D90008CCE0E946E6E6093020470930304809355
:101DA000040490930504089580E1E5EDF5E0A5EEC7
:101DB000B5E001900D928A95E1F7089580E1E5EE96
:101DC000F5E0A5EDB5E001900D928A95E1F7089553
:101DD000CF92DF92EF92FF920F931F93CF93DF93F7
:101DE000EB01FC0160817181828193813CE3C32E10
:101DF000D12CE12CF12CA70196010E940975162F18
:101E0000072FCA01B901A70196010E940975F62E94
:101E1000E72ECA01B90128E130E040E050E00E941D
:101E20000975FB01C9016DE671E00E94F5749B0123
:101E30004F2D5E2D21153105D9F00F931F93EF9291
:101E4000FF92FF93EF939F938F933F932F938BED8D
:101E500096E09F938F93DF93CF930E9490798DB7F5
:101E60009EB70E960FB6F8949EBF0FBE8DBF5BC097
:101E70000097C9F00F931F93EF92FF92FF93EF9398
:101E80009F938F938BEC96E09F938F93DF93CF93E9
:101E90000E949079EDB7FEB73C960FB6F894FEBF5E
:101EA0000FBEEDBF40C03097B9F00F931F93EF9274
:101EB000FF92FF93EF938FEB96E09F938F93DF93C7
:101EC000CF930E9490798DB79EB70A960FB6F8947B
:101ED0009EBF0FBE8DBF27C0452BA9F00F931F9348
:101EE000EF92FF9287EB96E09F938F93DF93CF93D0
:101EF0000E949079EDB7FEB738960FB6F894FEBF02
:101F00000FBEEDBF10C00F931F9383EB96E09F931E
:101F10008F93DF93CF930E9490790F900F900F9043
:101F20000F900F900F90DF91CF911F910F91FF9025
:101F3000EF90DF90CF90089581548A3148F5482F73
:101F400050E0FA0163E0F595E7956A95E1F7E85E00
:101F5000F94F208130E0877002C0359527958A952A
:101F6000E2F720FF15C0FA01E250FA4F2081222348
:101F700039F08091230690912406820F911D02C0B2
:101F800080E090E09093200680931F0681E0089502
:101F900080E00895D1DF882339F081E020911F0689
:101FA00030912006232B09F480E008951F93CF93EE
:101FB000DF9380911F0690912006009701F1FC01AC
:101FC000EF011191212F2F7D99F0153411F0153665
:101FD000B9F7188260E070E080911F0690912006AA
:101FE0000E946A751883562F472F382F292F0BC050
:101FF00060E070E0DF91CF911F910C946A7550E022
:1020000040E030E020E0652F742F832F922FDF9186
:10201000CF911F91089580911F06909120060097FF
:1020200031F04AE050E060E070E00C94D27660E07D
:1020300070E0CB01089580911F06909120060097D3
:1020400031F04AE050E060E070E00C94037860E02A
:1020500070E0CB010895DFDF97FD0CC0DCDF6F3F40
:1020600071058105910509F014F4D5DF01C06FEF0A
:10207000862F089580E0089580911F069091200694
:10208000892B39F0E8DF91E0811101C090E0892FC0
:10209000089581E0089521EF35E04DEE55E069EEB9
:1020A00075E085EE95E00C94905285EE95E00C94E9
:1020B0004253CF93DF931F921F92CDB7DEB780912B
:1020C000960C9091970C9E012F5F3F4F009729F43B
:1020D0002C593C403A83298304C0281B390B3A838E
:1020E000298389819A810F900F90DF91CF91089574
:1020F000FF920F931F93CF93DF93F62EFC01208165
:102100002B3311F10091C6050430F0F41091C40591
:10211000C12FD0E0F0E61F9F90011124BC01C9013E
:102120008C5B9B4F0E947E79CD52DC4FF8821F5F03
:10213000143018F41093C40502C01092C4050F5F48
:102140000093C60581E001C080E0DF91CF911F912F
:102150000F91FF9008950F931F93CF93DF93EC019E
:10216000C7DF8823B1F0E8E3FCE084918F010F5FC3
:102170001F4F882319F099DCF801F7CFBE018CEDD1
:1021800098E00E94705482E290DC8AE08EDC81E06C
:1021900001C080E0DF91CF911F910F910895DF92F0
:1021A000EF92FF920F931F93CF93DF93CDB7DEB7DC
:1021B0006E970FB6F894DEBF0FBECDBF609142049C
:1021C000709143046115710559F14DE150E08E01A4
:1021D0000F5F1F4FC8010E9434791E8EF8017F01E6
:1021E000E01AF10AD190DD2019F08AE0D812F7CF79
:1021F000F801EE0DFF1D108260E0C801ACDF8823FE
:1022000079F0DD20B1F08FEFE81AF80A80914204EE
:10221000909143048E0D9F1D90934304809342043C
:1022200081E02091420430914304232B29F480E083
:1022300003C080E090E0F0CF6E960FB6F894DEBF5A
:102240000FBECDBFDF91CF911F910F91FF90EF9007
:10225000DF900895FF920F931F93CF93DF93EC01CC
:1022600084E598DE882329F1F6DEF82E1816ECF4C2
:10227000E8E3FCE084918F010F5F1F4F882319F082
:1022800014DCF801F7CF8DE410DC6AE070E0CE01D9
:1022900088DC6F2D772767FD709588EC97E00E94AA
:1022A00098548AE002DC81E009C08093EF0380E06B
:1022B00005C0809109048093EF0380E0DF91CF9106
:1022C0001F910F91FF900895EF92FF920F931F932C
:1022D000CF93DF93EC018C01000F111F000F111F32
:1022E000C8018C5E9B4F7C01F801E05EFB4FD8017A
:1022F000A45DBB4F2D913D914D915C9160817181A9
:10230000828193810E94EE70F701608371838283E2
:102310009383045E164FF801459155916591749130
:10232000FE01EE0FFF1FEE0FFF1FDF01A35EBD4F8B
:102330004D935D936D937C931397E05FF64F4591BA
:10234000559165917491CC0FDD1FCC0FDD1FCF5ED1
:10235000DD4F488359836A837B83DF91CF911F913F
:102360000F91FF90EF900895FF920F931F93CF93DB
:10237000DF93882329F0F090D20581E0F82601C090
:10238000F12C662329F00091D30581E0082701C0D4
:1023900000E0442329F01091D40581E0182701C002
:1023A00010E0F11005C0011103C0112309F443C06E
:1023B000E8E3FCE08491EF012196882319F075DBB6
:1023C000FE01F8CFE2ECF7E08491EF01219688233B
:1023D00019F06BDBFE01F8CFFF2051F0E0ECF7E0E5
:1023E0008491EF012196882319F05FDBFE01F8CF7D
:1023F000002351F0EEEBF7E08491EF012196882362
:1024000019F053DBFE01F8CF111103C0E4EBF7E044
:102410000AC0ECEBF7E08491EF0121968823B1F339
:1024200044DBFE01F8CF8491EF012196882329F047
:102430003CDBFE01F8CF80E001C081E0DF91CF916D
:102440001F910F91FF9008958F929F92AF92BF922C
:10245000CF92DF92EF92FF920F931F93CF93DF9370
:10246000C7E7AC2EC2E0BC2ED5EDED2ED5E0FD2E9B
:1024700005EE15E084E1C82E84E0D82EC0E0D0E05F
:10248000F50181915F0158DD882359F18FDDFE014F
:10249000E85CFB4F2081211104C020910804222315
:1024A00031F0F801208131814281538103C020E065
:1024B00030E0A9010E94EE70C33049F0F60120819E
:1024C0003181428153810E94ED70FB0102C0E62FF1
:1024D000F72FAF01BC01F7014083518362837383FF
:1024E0000AC0F80180819181A281B381F7018083C4
:1024F0009183A283B3832196F4E0EF0EF11C0C5F6D
:102500001F4F84E0C80ED11CC430D10509F0B8CFEC
:1025100086E440DD8823B9F049DD20E030E0A90100
:102520000E94E57318167CF441DD20E030E040E7BE
:1025300052E40E94CE7160932B0270932C02809320
:102540002D0290932E02DF91CF911F910F91FF905A
:10255000EF90DF90CF90BF90AF909F908F900895B5
:10256000CF92DF92EF92FF92CF93DF930E946E6E35
:102570006B017C0180910602882309F462C02091DE
:10258000D1033091D2032115310509F45AC080914D
:10259000CD039091CE03A091CF03B091D003B701AA
:1025A000A601481B590B6A0B7B0B77FD5DC02330DE
:1025B000310509F13CF4213031050CF442C0E8E367
:1025C000FCE007C02430310509F03BC0E8E3FCE043
:1025D00026C08491EF012196882319F066DAFE0166
:1025E000F8CFE2EAF7E08491EF012196882349F1E0
:1025F0005CDAFE01F8CFE8E3FCE08491EF0121967C
:10260000882319F052DAFE01F8CFEBE8F7E0849165
:10261000EF0121968823A9F048DAFE01F8CF8491D2
:10262000EF012196882319F040DAFE01F8CFE3E7A5
:10263000F7E08491EF012196882319F036DAFE0144
:10264000F8CF2091060230E0A8EEB3E00E944D756D
:102650006C0D7D1D8E1D9F1D6093CD037093CE0369
:102660008093CF039093D003DF91CF91FF90EF90B1
:10267000DF90CF9008950F931F93CF93DF9383E55F
:1026800089DC882309F440C0E6DC082F80E582DC81
:10269000882329F0C0DC77FD37C0EB0102C0CDE014
:1026A000D0E08C2FECE7F6E09491891731F0319669
:1026B00096E0E43AF907C1F714C0EEE3FCE0849138
:1026C000EF012196882319F0F0D9FE01F8CFE4EA52
:1026D000F6E08491EF0121968823B1F0E6D9FE015E
:1026E000F8CF61E08C2F0E943A70602F8C2F0E94EF
:1026F000737010E0B8018C2F0E94246F299721F489
:1027000010930B0400930A04DF91CF911F910F9156
:10271000089588E690E09EDD811122C08091F60543
:1027200083FD1EC083E536DC8823C1F03FDC0E94B8
:1027300036727093810C6093800C80E00E949863E5
:1027400035DC20E030E04AEA52E40E94C7711816F6
:1027500024F080EF93E00E941C5E28DC0C943C5433
:102760000895DF92EF92FF920F931F93CF93DF9321
:1027700083E5E2DB882349F083E50CDC882311F054
:102780006ADC01C080E08093F605E8E3FCE0849118
:10279000EF012196882319F088D9FE01F8CFE5E7EB
:1027A000F6E08491EF012196882319F07ED9FE018D
:1027B000F8CF8091F605882371F10BE616E0C0E0B2
:1027C000D0E020E08091F60590E00C2E02C09595B7
:1027D00087950A94E2F780FF15C0DD24D394D20ECA
:1027E000222311F08CE261D9F80125913491F9018D
:1027F00084917901FFEFEF1AFF0A882321F055D960
:102800009701F5CFD22E21960E5F1F4FC530D1050F
:1028100061F02D2DD7CFE7E6F6E08491EF01219608
:10282000882319F042D9FE01F8CF8AE0DF91CF91D9
:102830001F910F91FF90EF90DF9037C9CF93DF93F7
:1028400083E5A8DB882349F006DC8D3308F08CE3B0
:1028500080930602DF91CF910895E8E3FCE0849134
:10286000EF012196882319F020D9FE01F8CF40917D
:10287000060250E060E070E081E396E00E940B55B4
:102880008AE0DF91CF9111C97F928F929F92AF9290
:10289000BF92CF92DF92EF92FF920F931F93CF934D
:1028A000DF9307E712E0C8EBD6E0712CF8018191C5
:1028B0008F0142DB882309F46AC0F3E07F1262C013
:1028C00075DB6B017C0120E030E040EA51E40E94BE
:1028D000C77187FF4EC0A70196016091C406709131
:1028E000C5068091C6069091C7060E94CE714B0125
:1028F0005C019B01AC016091680670916906809152
:102900006A0690916B060E9420746093680670932B
:10291000690680936A0690936B06A5019401609105
:10292000D4067091D5068091D6069091D7060E9464
:1029300020746093D4067093D5068093D606909346
:10294000D70660919C0670919D0680919E0690919D
:102950009F060E946772A50194010E9420740E9444
:102960003B7260939C0670939D0680939E069093A5
:102970009F06C092C406D092C506E092C606F092A9
:10298000C70605C013DB688379838A839B837394AE
:10299000249684E078128ACFDF91CF911F910F9116
:1029A000FF90EF90DF90CF90BF90AF909F908F906F
:1029B0007F900C941854CF93DF93EBE4F7E084916D
:1029C000EF012196882319F070D8FE01F8CF2091ED
:1029D000140430911504409116045091170460912D
:1029E000E5057091E6058091E7059091E8050E9464
:1029F000EE7042E050E081D9E7E4F7E08491EF0126
:102A00002196882319F051D8FE01F8CF209118049F
:102A10003091190440911A0450911B046091E9050A
:102A20007091EA058091EB059091EC050E94EE70A3
:102A300042E050E062D9E3E4F7E08491EF012196AF
:102A4000882319F032D8FE01F8CF20911C04309170
:102A50001D0440911E0450911F046091ED0570917A
:102A6000EE058091EF059091F0050E94EE7042E036
:102A700050E043D9EFE3F7E08491EF0121968823FA
:102A800019F013D8FE01F8CF6091F1057091F205AD
:102A90008091F3059091F40542E050E02ED90E9418
:102AA0009B5D80E090E00E94355DAB01BC0182E35C
:102AB00097E00E94CF5481E090E00E94355DAB0129
:102AC000BC0184E297E00E94CF548AE00E94550D39
:102AD0008AE0DF91CF910C94550D3F924F925F9217
:102AE0006F927F928F929F92AF92BF92CF92DF921E
:102AF000EF92FF920F931F93CF93DF930E94B35CEB
:102B000097E7A92E92E0B92EC5EED5E004E114E0D6
:102B1000912C312C412CF50181915F013BDA882306
:102B200009F441C043DA562E672E782E892EF3E041
:102B30009F1659F0F80120813181428153810E9412
:102B4000ED70562E672E782E892E288139814A8184
:102B50005B81652D762D872D982D0E94ED706B0180
:102B60007C012DEB37E346E855EB0E94E57387FDCA
:102B70000AC02DEB37E346E855E3C701B6010E94D2
:102B8000C771181684F4F3E09F1203C044244394E1
:102B900002C033243394852D962DA72DB82D88831C
:102BA0009983AA83BB83939424960C5F1F4F84E080
:102BB0009812B1CF332011F078DA08C0442031F0F8
:102BC00061EF75E083E090E00E945353DF91CF9175
:102BD0001F910F91FF90EF90DF90CF90BF90AF903B
:102BE0009F908F907F906F905F904F903F90E3CE3B
:102BF000CF93DF93E4E6F5E08491EF0121968823FB
:102C000021F00E94550DFE01F7CF60E084E595E0CC
:102C100081D860E08DE495E07DD861E082E495E0C4
:102C200079D861E082E395E075D860E089E295E0CB
:102C300071D861E08FE195E06DD860E085E195E0C5
:102C400069D860E08DE095E065D860E08FEF94E0B2
:102C500061D860E081EF94E05DD860E082EE94E0BE
:102C600059D860E084ED94E055D860E08EEB94E0B4
:102C700051D860E08DEA94E0DF91CF914BC8CF93BB
:102C8000DF9385E487D9882311F0F6D902C085E463
:102C900053D9882359F0E8E3FCE08491EF012196B1
:102CA000882321F00E94550DFE01F7CF81E472D9EF
:102CB000882311F0E1D902C081E43ED9882359F07C
:102CC000E2EAF4E08491EF012196882321F00E944A
:102CD000550DFE01F7CFC0912106D09122068991B2
:102CE000882319F00E94550DFACF8AE0DF91CF9129
:102CF0000C94550DCF9388EC90E0ACDA81113DC077
:102D000084E41AD98823B1F151D9C1E020E030E040
:102D1000A9010E94C771811101C0C0E0C0932506BE
:102D2000CC2341F143D9E091EF0324E0E29FF0018D
:102D30001124EC55F94F608371838283938320E0E3
:102D400030E0A9016091A4067091A5068091A606C5
:102D50009091A7060E94C77181110CC080E090E09D
:102D6000A0E4B0E48093A4069093A506A093A606E1
:102D7000B093A706CF910C942747CF91089583E590
:102D8000DBD88823D1F012D9AB01BC014093740683
:102D900050937506609376067093770640936C06A1
:102DA00050936D0660936E0670936F068AE794E009
:102DB0000E94CF548AE00E94550D80E5BDD888233B
:102DC00091F0F4D8AB01BC014093740650937506A2
:102DD00060937606709377068DE594E00E94CF5459
:102DE0008AE00E94550D82E5A7D8882391F0DED8AD
:102DF000AB01BC014093700650937106609372065C
:102E0000709373068EE394E00E94CF548AE00E9490
:102E1000550D84E591D8882391F0C8D8AB01BC0149
:102E200040936C0650936D0660936E0670936F0628
:102E300080E294E00E94CF548AE00C94550D0895EE
:102E400083E57AD8882349F0B1D8609378067093E7
:102E5000790680937A0690937B0684E56DD8882363
:102E600049F0A4D8609358067093590680935A0687
:102E700090935B0682E460D8882349F0DCD86093A5
:102E80007C0670937D0680937E0690937F0688E58E
:102E900053D8882349F08AD860935C0670935D0606
:102EA00080935E0690935F0689E546D8882349F0B3
:102EB0007DD860936006709361068093620690935C
:102EC00063068AE539D8882349F070D86093640690
:102ED00070936506809366069093670685E42CD808
:102EE000882349F063D860936806709369068093DD
:102EF0006A0690936B060895EF92FF920F931F93CB
:102F0000CF93DF9327E7E22E22E0F22E00E214E0D7
:102F1000C0E0D0E0F70181917F010ED8882341F015
:102F200045D8F8016083718382839383CE01CCD925
:102F300021960C5F1F4FC330D10561F784E50E94D5
:102F40009C0F882361F032D8609320047093210491
:102F5000809322049093230480E090E0B5D980E52B
:102F60000E949C0F882361F021D860932404709301
:102F70002504809326049093270481E090E0A4D94F
:102F8000DF91CF911F910F91FF90EF9014CDCF93D0
:102F9000DF93E8E3FCE08491EF012196882321F0A0
:102FA0000E94550DFE01F7CF83E50E949C0F8823F8
:102FB00019F062D880931002E0E1F4E08491EF010F
:102FC0002196882321F00E94550DFE01F7CF8091B4
:102FD0001002882319F0ECE0F4E002C0E8E0F4E02D
:102FE0008491EF012196882321F00E94550DFE0166
:102FF000F7CFE0E0F4E08491EF012196882321F0FF
:103000000E94550DFE01F7CF209114043091150454
:10301000409116045091170460911D0270911E0298
:1030200080911F02909120020E94EE70AB01BC01C2
:103030008EEF93E00E94CF54209118043091190430
:1030400040911A0450911B04609121027091220258
:1030500080912302909124020E94EE70AB01BC018A
:103060008BEF93E00E94CF5420911C0430911D04FB
:1030700040911E0450911F04609125027091260218
:1030800080912702909128020E94EE70AB01BC0152
:1030900088EF93E00E94CF54E0EFF3E08491EF01DA
:1030A0002196882321F00E94550DFE01F7CF209133
:1030B0001404309115044091160450911704609146
:1030C00011027091120280911302909114020E94D9
:1030D000EE70AB01BC018EEE93E00E94CF542091C4
:1030E00018043091190440911A0450911B04609106
:1030F00015027091160280911702909118020E9499
:10310000EE70AB01BC018BEE93E00E94CF54209196
:103110001C0430911D0440911E0450911F046091C5
:10312000190270911A0280911B0290911C020E9458
:10313000EE70AB01BC0188EE93E00E94CF548AE0B0
:10314000DF91CF910C94550D0F931F93CF93DF9385
:103150008DED90E07FD881113BC083E50E94CA0FBE
:103160008823B1F1C091EF03D0E00E940B10FE0163
:10317000EE0FFF1FE05CFD4F71836083E091EF0372
:10318000F0E0EF01CC0FDD1FCC0FDD1F8E01045CE2
:103190001D4FEE0FFF1FE05CFD4F6081718188279E
:1031A00077FD8095982F0E9469722AE037ED43E2FF
:1031B0005CE30E942074C056D94F288139814A812E
:1031C0005B810E942074F801608371838283938302
:1031D000DF91CF911F910F910895CF93DF9385E4F5
:1031E0000E94CA0F811110C080E50E949C0F8823A5
:1031F00091F00E94D60F6093780C7093790C8093B5
:103200007A0C90937B0C07C00E942B10882361F3EB
:10321000EEE3FCE071C089E40E949C0F882381F0FA
:103220000E94D60F2CEA35EC47E25EE30E94207440
:103230006093740C7093750C8093760C9093770C5C
:1032400084E40E949C0F882381F00E94D60F2CEA10
:1032500035EC47E25EE30E94CE716093700C709390
:10326000710C8093720C9093730CE8E3FCE08491F2
:10327000EF012196882321F00E94550DFE01F7CF22
:103280004091780C5091790C60917A0C70917B0C84
:1032900084EE93E00E94CF542CEA35EC47E25EE3E3
:1032A0006091740C7091750C8091760C9091770CF4
:1032B0000E94CE71AB01BC0180EE93E00E94ED5400
:1032C0002CEA35EC47E25EE36091700C7091710C72
:1032D0008091720C9091730C0E942074AB01BC0120
:1032E0008CED93E00E94ED548AE0DF91CF910C9435
:1032F000550D0E94550DFE018491EF01219681111B
:10330000F8CFC3E5D2E08991882319F00E94550DCA
:10331000FACF8AE0DF91CF910C94550DCF93DF93D4
:1033200080E50E949C0F882351F00E94D60F609385
:103330006C0C70936D0C80936E0C90936F0C89E401
:103340000E949C0F882381F00E94D60F2CEA35EC56
:1033500047E25EE30E9420746093680C7093690CEE
:1033600080936A0C90936B0C84E40E949C0F8823DA
:1033700081F00E94D60F2CEA35EC47E25EE30E9412
:10338000CE716093640C7093650C8093660C90937F
:10339000670CE8E3FCE08491EF012196882321F09B
:1033A0000E94550DFE01F7CF40916C0C50916D0CB1
:1033B00060916E0C70916F0C88ED93E00E94CF5479
:1033C0002CEA35EC47E25EE36091680C7091690C81
:1033D00080916A0C90916B0C0E94CE71AB01BC0184
:1033E00084ED93E00E94ED542CEA35EC47E25EE375
:1033F0006091640C7091650C8091660C9091670CE3
:103400000E942074AB01BC0180ED93E00E94ED545A
:103410008AE0DF91CF910C94550DCF93DF9383E534
:103420000E949C0FC82F882371F00E94D60F0E9423
:103430003672709352026093510221E0672B09F0BB
:1034400020E02093570C80E50E949C0F882369F0B0
:103450008091510290915202892B19F00E943C10E8
:1034600001C081E08093570C2DC0C1112BC0E8E34F
:10347000FCE08491EF012196882321F00E94550DF4
:10348000FE01F7CF8091570C882319F067E872E0AE
:1034900002C064E672E08DEB93E00E94705460918C
:1034A0005102709152028CEA93E00E949854E8EA2B
:1034B000F3E08491EF012196882321F00E94550DBD
:1034C000FE01F7CFDF91CF910895CF92DF92EF9277
:1034D000FF920F931F93CF93DF931F921F92CDB74D
:1034E000DEB785E40E94CA0F882321F00E940B10EA
:1034F0006B0102C0C12CD12C83E40E94CA0F882327
:1035000021F00E940B10162F01C015E085E50E94E6
:10351000CA0F882321F00E943C10082F04C085E5C3
:103520000E949C0F082FE12CF12CD7FE03C02CE841
:1035300092E402C026E193E483E529839A830E9402
:10354000CA0F29819A81882329F00E94D60F7B0116
:103550009C0101C0392FB701C9010E943672C11404
:10356000D10411F41092EF03882777FD8095982FEE
:103570000E946972212F4C2D0E9406690F900F90B6
:10358000DF91CF911F910F91FF90EF90DF90CF903F
:1035900008954F925F926F927F928F929F92AF9217
:1035A000BF92CF92DF92EF92FF920F931F93CF9330
:1035B000DF93CDB7DEB72C970FB6F894DEBF0FBE02
:1035C000CDBF41E061E081E00E94B4118111AEC045
:1035D00075EE872E75E0972ECE0101965C0100E016
:1035E00010E0C8010E947E0EF4014190519061905C
:1035F00071904F01A30192010E94ED706B017C015B
:1036000020E030E040EA51EC0E94E57387FD10C0F5
:1036100020E030E040EA51E4C701B6010E94C771E2
:10362000181634F0F501C082D182E282F3820FC015
:10363000F801E751F74FE4911E16A4F777FA70945A
:1036400077F87094F5014082518262827382F501AD
:10365000C190D190E190F1905F0120E030E040EA2C
:1036600051ECC701B6010E94E57387FF03C0EEE38A
:10367000FCE00BC020E030E040EA51E4C701B601B5
:103680000E94C7711816C4F4F2CF84918F010F5FA6
:103690001F4F882321F00E94550DF801F6CFECE36F
:1036A000F3E084918F010F5F1F4F882309F43EC020
:1036B0000E94550DF801F5CF0F5F1F4F0330110524
:1036C00009F08FCF60E2E62E64E0F62ECE0101967F
:1036D0006C0100E010E0F60141915191619171910E
:1036E0006F01F70141935193619371937F01C80179
:1036F0000E9464110F5F1F4F0330110561F72C9674
:103700000FB6F894DEBF0FBECDBFDF91CF911F91F2
:103710000F91FF90EF90DF90CF90BF90AF909F9070
:103720008F907F906F905F904F9045C92C960FB609
:10373000F894DEBF0FBECDBFDF91CF911F910F91E7
:10374000FF90EF90DF90CF90BF90AF909F908F90C1
:103750007F906F905F904F9008951F93CF93DF936A
:10376000182F8823F1F0E8E3FCE08491EF01219623
:10377000882321F00E94550DFE01F7CF84E50E94B9
:10378000550D6AE070E0812F0E94CB0D80E20E940F
:10379000550DC3E5D2E089918823B9F00E94550DFB
:1037A000FACF10920904E8E3FCE08491EF0121963E
:1037B000882321F00E94550DFE01F7CF6091090486
:1037C00070E082E197E00E9498548AE0DF91CF9107
:1037D0001F910C94550DCF93DF930E94C90EE09179
:1037E000C505F0E0ED52FC4F8081882381F0E1E2D5
:1037F000F3E08491EF012196882321F00E94550D7A
:10380000FE01F7CF8AE0DF91CF910C94550DDF9147
:10381000CF910895CF93DF930E94460DE4E2F3E049
:103820008491EF012196882321F00E94550DFE011D
:10383000F7CF6091C7057091C8058091C905909137
:10384000CA056F5F7F4F8F4F9F4F4AE050E00E9445
:10385000F00D8AE00E94550DDF91CF91BCCFEF9221
:10386000FF920F931F93CF93DF931F92CDB7DEB7D5
:10387000082F162FEEE3FCE084917F012FEFE21A70
:10388000F20A882331F099830E94550DF70199813E
:10389000F3CFE02FF92F84917F019FEFE91AF90A06
:1038A000882321F00E94550DF701F5CF6091C705DF
:1038B0007091C8058091C9059091CA054AE050E011
:1038C0000E94F00D8AE00E94550D1111A3DF1092A5
:1038D0000704109206040F90DF91CF911F910F9172
:1038E000FF90EF9008954F925F926F927F928F9228
:1038F0009F92AF92BF92CF92DF92EF92FF92CF93BF
:10390000DF93EC0180911002882309F47CC0888049
:103910009980AA80BB80CC80DD80EE80FF80A501ED
:103920009401C501B4010E9420742B013C01A70140
:103930009601C701B6010E9420749B01AC01C3012E
:10394000B2010E94EE702B013C0120910C043091D9
:103950000D0440910E0450910F040E94E573181657
:1039600034F5C301B2010E948D749B01AC016091DA
:1039700010047091110480911204909113040E941C
:10398000CE712B013C019B01AC01C501B4010E9429
:103990002074688379838A839B83A3019201C70182
:1039A000B6010E9420746C837D838E839F83C090B8
:1039B0002502D0902602E0902702F0902802A7016D
:1039C0009601688579858A859B850E94C77187FFE6
:1039D00004C0C886D986EA86FB86C0901902D090BA
:1039E0001A02E0901B02F0901C02A7019601688564
:1039F00079858A859B850E94E573181624F4C8860C
:103A0000D986EA86FB86DF91CF91FF90EF90DF9019
:103A1000CF90BF90AF909F908F907F906F905F906E
:103A20004F9008954F925F926F927F928F929F92E4
:103A3000AF92BF92CF92DF92EF92FF92CF93DF933C
:103A4000CDB7DEB728970FB6F894DEBF0FBECDBF57
:103A50007B015A012BED3FE049E450E4FC01608119
:103A60007181828193810E94207420E030E044E3E0
:103A700053E40E94CE7169837A838B839C832BED00
:103A80003FE049E450E4F7016081718182819381D4
:103A90000E94207420E030E044E353E40E94CE71A1
:103AA0006B017C012BED3FE049E450E4F5016081BE
:103AB0007181828193810E94207420E030E044E390
:103AC00053E40E94CE712B013C0169817A818B8184
:103AD0009C810E94CB714B015C01C701B6010E9421
:103AE000CB716D837E838F83988720E030E047E041
:103AF00053E4C501B4010E9420744B015C0120E035
:103B000030E040E253E46D817E818F8198850E9490
:103B100020749B01AC01C501B4010E94EE7020E04D
:103B200030E048E452E40E94EE704B015C01C301B6
:103B3000B2010E94CB719B01AC01C501B4010E948E
:103B400020746093D7037093D8038093D903909324
:103B5000DA03C301B2010E9483749B01AC01C50169
:103B6000B4010E9420746093DB037093DC038093A4
:103B7000DD039093DE03C701B6010E9483746B01DD
:103B80007C0169817A818B819C810E9483744B01C5
:103B90005C0120E030E040E253E4C701B6010E943E
:103BA00020749B01AC0160E070E080EA92E40E9426
:103BB000ED706B017C0120E030E047E053E4C5018B
:103BC000B4010E9420749B01AC01C701B6010E94A0
:103BD000EE706093DF037093E0038093E1039093B2
:103BE000E20328960FB6F894DEBF0FBECDBFDF917B
:103BF000CF91FF90EF90DF90CF90BF90AF909F90CC
:103C00008F907F906F905F904F9008953F924F926A
:103C10005F926F927F928F929F92AF92BF92CF925C
:103C2000DF92EF92FF920F931F93CF93DF930E9447
:103C3000B35CE7E7AE2EE2E0BE2EC5EED5E004E1D0
:103C400014E0912C312C412CF50181915F010E94EF
:103C5000CA0F882309F442C00E94D60F562E672E41
:103C6000782E892EF3E09F1659F0F80120813181DA
:103C7000428153810E94ED70562E672E782E892E38
:103C8000288139814A815B81652D762D872D982D7C
:103C90000E94ED706B017C012DEB37E346E855EB9C
:103CA0000E94E57387FD0AC02DEB37E346E855E334
:103CB000C701B6010E94C771181684F4F3E09F1281
:103CC00003C04424439402C033243394852D962D9D
:103CD000A72DB82D88839983AA83BB8393942496B8
:103CE0000C5F1F4F84E09812AFCF4DEE55E069EEA8
:103CF00075E085EE95E096DE332019F00E945510B0
:103D000008C0442031F061EF75E083E090E00E944C
:103D10005353DF91CF911F910F91FF90EF90DF9060
:103D2000CF90BF90AF909F908F907F906F905F905B
:103D30004F903F900C94DB14CF93DF93CDB7DEB759
:103D40002C970FB6F894DEBF0FBECDBF82E090E097
:103D50000E94355D69837A838B839C8381E090E048
:103D60000E94355D6D837E838F83988780E090E02D
:103D70000E94355D69877A878B879C87AE014F5F8C
:103D80005F4FBE016B5F7F4FCE0109964BDE2C96D5
:103D90000FB6F894DEBF0FBECDBFDF91CF9108956F
:103DA000CF93DF93EC01C8DFC436D10551F48CE02A
:103DB000E7EDF3E0A5EEB5E001900D928A95E1F70D
:103DC00011C0CC0FDD1FCC0FDD1FFE01EB51FA4FF0
:103DD000C952DC4F88819981AA81BB8180839183FC
:103DE000A283B383DF91CF9108950E944E5D0E941C
:103DF000B35C84E690E0D4DF0C9455104F925F9250
:103E00006F927F928F929F92AF92BF92CF92DF92EA
:103E1000EF92FF92CF93DF93CDB7DEB72C970FB61B
:103E2000F894DEBF0FBECDBF5C01FC01C080D18025
:103E3000E280F3804480558066807780A7019601F8
:103E4000C301B2010E94617169837A838B839C8371
:103E500020E030E040EA52E4F5016085718582851A
:103E600093850E94ED704B015C01A7019601C7018B
:103E7000B6010E9420746B017C01A3019201C30171
:103E8000B2010E9420749B01AC01C701B6010E94DF
:103E9000EE700E948D7420E030E048E452E40E940D
:103EA000ED702B013C01A5019401C501B4010E94F4
:103EB00020746B017C01A3019201C301B2010E9435
:103EC00020749B01AC01C701B6010E94EE706B012A
:103ED0007C010E948D746D837E838F839887A301FC
:103EE0009201C501B4010E94617169877A878B874D
:103EF0009C8720E038E746EE55E4C701B6010E94F2
:103F0000ED704B015C0120E030E047E853E46D8147
:103F10007E818F8198850E9420749B01AC01C50130
:103F2000B4010E94CE710E94DF709B01AC016985D3
:103F30007A858B859C850E94EE709B01AC016BEDB0
:103F40007FE089EC9FE30E94ED704B015C01A701CB
:103F5000960160E07EE989EA96EC0E94ED7020E02F
:103F600030EC48E257E40E94CE710E94DF706B0192
:103F70007C0120E030E044E353E4C501B4010E9439
:103F800020742BED3FE049E450E40E94CE71609331
:103F9000E3037093E4038093E5039093E603A701A2
:103FA00096016BED7FE089EC9FE30E94ED70A50127
:103FB00094010E94ED7020E030E044E353E40E945D
:103FC00020742BED3FE049E450E40E94CE716093F1
:103FD000E7037093E8038093E9039093EA0320E0FA
:103FE00030E044E353E469817A818B819C810E94B3
:103FF00020742BED3FE049E450E40E94CE716093C1
:10400000EB037093EC038093ED039093EE032C96F7
:104010000FB6F894DEBF0FBECDBFDF91CF91FF90FA
:10402000EF90DF90CF90BF90AF909F908F907F9058
:104030006F905F904F900895DF92EF92FF920F93F1
:104040001F93CF93DF9300D01F92CDB7DEB7D62E4C
:10405000F72E8C010E94C90E2091D5053091D6050E
:104060004091D7055091D8056091E5057091E6051E
:104070008091E7059091E8050E94C77181113DC0CC
:104080002091D9053091DA054091DB055091DC058E
:104090006091E9057091EA058091EB059091EC053E
:1040A0000E94C771811129C02091DD053091DE0584
:1040B0004091DF055091E0056091ED057091EE05AE
:1040C0008091EF059091F0050E94C771811115C094
:1040D0002091E1053091E2054091E3055091E4051E
:1040E0006091F1057091F2058091F3059091F405CE
:1040F0000E94C771882309F441C0E090090420E0C0
:1041000030E0A9016D2D7F2DC8010E94C77181117A
:1041100008C0D0902B02F0902C0200912D0210913B
:104120002E026091290270912A02882777FD8095DE
:10413000982F0E9469729B01AC016D2D7F2DC801E3
:104140000E9420742AE037ED43E25CE30E94207471
:1041500069837A838B839C8385ED95E04FDE8E01A6
:104160000F5F1F4F21EE35E04BEE53E067EE73E03B
:1041700083EE93E00E9468510E94D40E0F900F903E
:104180000F900F90DF91CF911F910F91FF90EF90C3
:10419000DF9008952F923F924F925F926F927F929D
:1041A0008F929F92AF92BF92CF92DF92EF92FF9247
:1041B0000F931F93CF93DF93CDB7DEB728970FB63A
:1041C000F894DEBF0FBECDBF9A8389831B018A019D
:1041D00038872F8380912B0290912C02A0912D0281
:1041E000B0912E028B839C83AD83BE83D901BC909A
:1041F0001196DC9011971296EC9012971396FC9002
:1042000020E030E0A9016B2D7D2DC7010E94C77110
:10421000811107C0E0E3F9E0C590D590E590F490F6
:1042200005C08B2D9D2DD7016C017D01E981FA819F
:104230006081718182819381D1018D909D90AD903B
:10424000BC909B01AC010E9420742B013C01A50194
:104250009401C501B4010E9420749B01AC01C3010B
:10426000B2010E94EE704B015C0120E030E44CE1B1
:1042700055E40E94E57387FD96C020E838EF49EACF
:1042800057E4C501B4010E94C77118160CF48BC025
:104290000E94DE0ED8018D909D90AD90BC90A5013E
:1042A00094016091DD057091DE058091DF059091AC
:1042B000E0050E94C77187FF0BC08092DD059092D8
:1042C000DE05A092DF05B092E005C701B601B4DEBD
:1042D000E981FA8180819181A281B3818093D505A2
:1042E0009093D605A093D705B093D805F1018081AE
:1042F0009181A281B3818093D9059093DA05A0932F
:10430000DB05B093DC05AF81B8859C901196AC902D
:1043100011971296BC90129713968C9020E030E083
:10432000A901692D7A2D8B2D982D0E94C7718111BD
:1043300005C045E535E525E053E404C0492D3A2D97
:104340002B2D582D642F732F822F952F75DEF8019A
:1043500080809180A280B380A50194016091DD05E9
:104360007091DE058091DF059091E0050E94E57374
:1043700018165CF48092DD059092DE05A092DF05B0
:10438000B092E005C701B60157DE0E94B35C8B8195
:104390009C81AD81BE8180932B0290932C02A093CF
:1043A0002D02B0932E0228960FB6F894DEBF0FBEF2
:1043B000CDBFDF91CF911F910F91FF90EF90DF90D4
:1043C000CF90BF90AF909F908F907F906F905F90B5
:1043D0004F903F902F9008959B01AC0169EE75E0DE
:1043E00085EE95E0D7CE9A014DEE55E0D3CE8F9273
:1043F0009F92BF92CF92DF92EF92FF920F931F9303
:10440000CF93DF93CDB7DEB728970FB6F894DEBF12
:104410000FBECDBFF02EB12E69018C01000F111F10
:10442000000F111FC8018B519A4F4C01FC011082E3
:104430001182128213824D835E836F8378870E947C
:1044400055104D815E816F817885F40140835183E1
:104450006283738385EE95E0D1DCE090090420E06F
:1044600030E0A9016F2D7B2DC6010E94C77181111B
:1044700008C0085D164FF80185919591A591B491FA
:1044800003C08F2D9B2DD60189839A83AB83BC8378
:104490008E010F5F1F4F21EF35E04BEE53E067EECB
:1044A00073E083EE93E00E9468510E94B35C109227
:1044B000F90528960FB6F894DEBF0FBECDBFDF9189
:1044C000CF911F910F91FF90EF90DF90CF90BF9011
:1044D0009F908F9008954F925F926F927F928F92EC
:1044E0009F92AF92BF92CF92DF92EF92FF920F9383
:1044F0001F93CF93DF93CDB7DEB72C970FB6F89409
:10450000DEBF0FBECDBF5C01FC01E751F74F6491E8
:10451000FC01EE0FFF1FEE0FFF1FE850F74F459015
:10452000559065907490772767FD7095872F972F2A
:104530000E9469726B017C0120E030E040EC5FE397
:10454000C301B2010E942074A70196010E94207449
:10455000AB01BC0100E010E09801C50148DFF501A6
:10456000EE0FFF1FEE0FFF1FE451F74F259135911E
:1045700045915491C701B6010E9420746B017C01E2
:1045800020E030E0A9010E94C7714501880C991C08
:10459000880C991C882309F447C000E010E09801BA
:1045A000B701A6017058C50122DFF501E059F84FA7
:1045B0006491611119C0E8E3FCE084918F010F5F01
:1045C0001F4F882321F00E94550DF801F6CFEEE42D
:1045D000F7E084918F010F5F1F4F882321F00E9425
:1045E000550DF801F6CF6AE0F401E85DF64F45900D
:1045F00055906590749070E080E090E00E94697240
:104600009B01AC01C301B2010E94CE712B013C01A0
:10461000A7019601C701B6010E94EE70AB01BC0173
:1046200093018201C501E3DE81E0F501EE52FA4F0C
:104630008083F501E153FA4F8083F401E45DFB4F81
:104640001082118212821382C5010E9464118401BA
:104650000B511A4F82E0A816B10408F04FC080E059
:1046600090E00E947E0E69837A838B839C8381E035
:1046700090E00E947E0E6D837E838F83988782E018
:1046800090E00E947E0E69877A878B879C87CE0197
:104690000196B4DB4BEE53E067EE73E083EE93E0FC
:1046A000C1D9F401E952FC4F80819181A281B3818B
:1046B000F80180839183A283B383F401E45EF64F13
:1046C00085919591A591B491F401E35EFD4F8083AE
:1046D0009183A283B383F401E05FF64F85919591B6
:1046E000A591B491F501EE0FFF1FEE0FFF1FEF5ED6
:1046F000FD4F80839183A283B38308C0C5010E94CC
:104700007E0EF80160837183828393830E9455102B
:104710002C960FB6F894DEBF0FBECDBFDF91CF91C0
:104720001F910F91FF90EF90DF90CF90BF90AF90CF
:104730009F908F907F906F905F904F9008952F92F1
:104740003F924F925F926F927F928F929F92AF9221
:10475000BF92CF92DF92EF92FF920F931F93CF936E
:10476000DF93CDB7DEB762970FB6F894DEBF0FBE0A
:10477000CDBF8A8B0E94B35C40912B0250912C02DA
:1047800060912D0270912E0240933E0450933F049D
:1047900060934004709341042091290230912A02D1
:1047A00030933D0420933C0424E630E030932A0209
:1047B000209329020E94C90E91E09093FB058A89FB
:1047C000811118C088E50E949C0FF82E89E50E948F
:1047D0009C0F082F8AE50E949C0FF11007C0011161
:1047E00010C08823A1F0E12C11E01AC0182F00237B
:1047F00099F001C011E0012FFF24F394EE24E3941B
:104800000FC0182FFF24F394E12C00E009C0F12C15
:10481000E12C10E001E004C0F12CEE24E39400E070
:104820000E94DE0E011107C0E11005C0F11003C0A7
:10483000111101C103C180E090E0A0EAB0E48093CF
:10484000DD059093DE05A093DF05B093E0059C01A4
:10485000AD016091ED057091EE058091EF059091AD
:10486000F0050E94C77187FF0AC019821A821B8255
:104870001C82BE016F5F7F4F8DED95E0ADDD0111B4
:1048800004C0EE20A9F2FF2099F21092E9051092DF
:10489000EA051092EB051092EC051092E5051092D6
:1048A000E6051092E7051092E8050E944B10E9EE2C
:1048B000F8E02491298BE8EFF8E0C590D590E590D9
:1048C000F490ECEFF8E085909590A590B490A50158
:1048D0009401C701B6010E94E57318164CF4A701B4
:1048E0009601C501B4010E94CE712B013C0108C0A4
:1048F000A5019401C701B6010E94CE712B013C01B4
:1049000028E2222E29E0322EF101659175918591E0
:104910009491ECE2F9E025913591459154910E94F2
:10492000C77187FF0AC0F10185919591A591B49156
:104930008D879E87AF87B88B0AC0ECE2F9E085913E
:104940009591A591B4918D879E87AF87B88BA30170
:104950009201C301B2010E94207420E030E040E8DF
:104960005FE30E94EE700E948D749B01AC016D8527
:104970007E858F8598890E94207469877A878B87C6
:104980009C87EAEEF8E0749020E030E040EC5FE3D2
:10499000C501B4010E9420744B015C01672D77278B
:1049A00067FD7095872F972F0E9469729B01AC015C
:1049B000C501B4010E94207469837A838B839C8330
:1049C00020E030E040EC5FE3C701B6010E942074B4
:1049D0006B017C01A9896A2F772767FD7095872F66
:1049E000972F0E9469729B01AC01C701B6010E941A
:1049F00020746D837E838F839887AE01475F5F4FFE
:104A0000BE016F5F7F4FCE010596EDDC1092F90578
:104A10001092E9051092EA051092EB051092EC0550
:104A20001092E5051092E6051092E7051092E80550
:104A3000002309F4FDCE82E090E04DDD0E94551088
:104A40008091FA058093FB0580913E0490913F048C
:104A5000A0914004B091410480932B0290932C02CA
:104A6000A0932D02B0932E0280913C0490913D04BE
:104A700090932A02809329020E94C90E0E94DB149F
:104A800062960FB6F894DEBF0FBECDBFDF91CF9117
:104A90001F910F91FF90EF90DF90CF90BF90AF905C
:104AA0009F908F907F906F905F904F903F902F904E
:104AB00008954F925F926F927F928F929F92AF92E2
:104AC000BF92CF92DF92EF92FF92CF93DF9300D00D
:104AD0001F92CDB7DEB73B012BED3FE049E450E438
:104AE000FC0160817181828193810E94207420E0A9
:104AF00030E044E353E40E94CE714B015C010E941C
:104B000083746B017C01C501B4010E94CB714B0120
:104B10005C012BED3FE049E450E4F30160817181D9
:104B2000828193810E94207420E030E044E353E4CA
:104B30000E94CE712B013C010E94837469837A83A9
:104B40008B839C83C301B2010E94CB712B013C017A
:104B500020E030E047E053E4C501B4010E94207436
:104B60004B015C0120E030E040E253E4C301B201BC
:104B70000E9420749B01AC01C501B4010E94EE703B
:104B800020E030E0A9010E94EE706093D70370939B
:104B9000D8038093D9039093DA0320E030E047E014
:104BA00053E4C701B6010E9420746B017C0120E030
:104BB00030E040E253E469817A818B819C810E94DC
:104BC00020749B01AC01C701B6010E94EE7020E089
:104BD00030E0A9010E94EE706093DB037093DC0368
:104BE0008093DD039093DE030F900F900F900F9052
:104BF000DF91CF91FF90EF90DF90CF90BF90AF907B
:104C00009F908F907F906F905F904F9008955F98E6
:104C10008A989FB7F894E8E0F1E080818E7F8083E6
:104C20009FBF12980895129A089583E50E94CA0FB3
:104C3000882399F00E94D60F20E030E04AE754E440
:104C40000E9420740E943B7260930B0270930C02CE
:104C500080930D0290930E02089588E50E949C0FA8
:104C6000811111C089E50E949C0F81110CC08AE559
:104C70000E949C0F811107C085E40E949C0F811146
:104C800002C00C944B5D0E94B35C88E50E949C0FAF
:104C9000882319F05F9A1092CF0589E50E949C0F36
:104CA000882319F08A9A1092D0058AE50E949C0FF9
:104CB000882351F09FB7F894809108018160809318
:104CC00008019FBF1092D10585E40E949C0F8111BD
:104CD000AACF08955F9A1092CF058A9A1092D005B4
:104CE0009FB7F894E8E0F1E08081816080839FBF06
:104CF0001092D10598CFEEE3FCE08491EF0121966C
:104D0000882321F00E94550DFE01F7CFE4E8F2E080
:104D10008491EF012196882321F00E94550DFE0118
:104D2000F7CF0E942C64D6DF2FEF8BE49DE121505A
:104D300080409040E1F700C00000F8942FEF84E33A
:104D40009CE0215080409040E1F700C000000E94AC
:104D50002C64A895FECFFF920F931F93CF93DF9300
:104D60008091C605843008F019C10E942F0D97FD6F
:104D700015C1482F20910604309107048A3019F09C
:104D80004D3009F0E3C01092C4032115310541F301
:104D9000F901EC59FC4F108210920704109206049E
:104DA00084E693E08C01FC01208101962032D1F34E
:104DB000E8012E3409F087C00115110509F483C0FC
:104DC00067ED78E0C8010E944379FF24F394892BB2
:104DD00011F4F12C09C06EE470E0C80104960E9441
:104DE0006A79009709F08C014AE050E060E070E0D9
:104DF000C80101960E94D2766093CB057093CC05D2
:104E00008093CD059093CE050091C7051091C805FC
:104E10002091C9053091CA050F5F1F4F2F4F3F4F9B
:104E2000601771078207930731F0F11004C061E049
:104E300084EA98E031C06AE270E0CE010E94857990
:104E4000009739F1482F4C1B20E030E0F12C5FEF48
:104E5000540F421751F0652F621BFE01E60FF11D42
:104E60006081F6262F5F3F4FF4CF4AE050E060E0CC
:104E700070E001960E94D2760F2D10E020E030E025
:104E8000601771078207930771F061E085E898E089
:104E900003C061E08BE598E0DF91CF911F910F9106
:104EA000FF900C942F1C4091CB055091CC05609144
:104EB000CD057091CE054093C7055093C80560930A
:104EC000C9057093CA0580912F0281111DC067E446
:104ED00070E0CE010E946A790097B1F04AE050E09C
:104EE00060E070E001960E94D2766430710560F453
:104EF000E4EEF7E084918F010F5F1F4F882321F0CC
:104F00000E94550DF801F6CF68E672E0CE010E94CE
:104F10007579892B11F410920F026DE672E0CE01C3
:104F20000E947579892B19F48BED97E0E4DE62E736
:104F300072E0CE010E947579892B11F40E94F51E52
:104F400061E084E693E00E9478100ACF2F353105A6
:104F50000CF006CF4C3569F40E942F0D97FD00CF61
:104F60002091C4032111FCCE209106043091070446
:104F700009C04B3319F441E04093C4034091C4038A
:104F80004111EECEA9014F5F5F4F5093070440934C
:104F90000604F901EC59FC4F8083E2CEDF91CF91FA
:104FA0001F910F91FF9008950E94CF10811101C0B1
:104FB000D2CE0895CF92DF92EF92FF920F931F937C
:104FC000CF93C82F8091C605843008F4EDDF0E948E
:104FD0006E6EC090FE03D090FF03E0900004F0904E
:104FE0000104C114D104E104F10471F1009102043F
:104FF0001091030420910404309105040C0D1D1D33
:105000002E1D3F1D6B017C01C01AD10AE20AF30A72
:10501000F7FC1AC0EEE3FCE084918F010F5F1F4F95
:10502000882321F00E94550DF801F6CF60912306E8
:10503000709124068DEA92E00E9470548AE00E94EA
:10504000550D84EA92E057DEC0900B02D0900C021E
:10505000E0900D02F0900E02C114D104E104F104BD
:10506000E1F00091020410910304209104043091B6
:1050700005040C0D1D1D2E1D3F1D6B017C01C01A6A
:10508000D10AE20AF30AF7FC08C0C11106C09091E8
:10509000D9068091D806981749F0CF911F910F91AA
:1050A000FF90EF90DF90CF900C9408475F9A10929A
:1050B000CF058A9A1092D0059FB7F8948091080185
:1050C0008160809308019FBF1092D105ACDDE5CFD0
:1050D0000E94B0120E94BD6D80E06CDF0C94C1652F
:1050E000CF92DF92EF92FF926B017C010E94C90E7A
:1050F0008091020490910304A0910404B0910504EE
:10510000C80ED91EEA1EFB1E0E946E6E6C197D0928
:105110008E099F0997FF02C0DBDFF6CFFF90EF906B
:10512000DF90CF9008952F923F924F925F926F92AF
:105130007F928F929F92AF92BF92CF92DF92EF9227
:10514000FF920F931F93CF93DF93CDB7DEB72E97C8
:105150000FB6F894DEBF0FBECDBF8DE690E00E9483
:105160002A1181114BC18091F60583FD47C183E56A
:105170000E94CA0F482E811106C082E50E94CA0F04
:10518000882309F43BC10E94D60F0E9436727093A7
:10519000810C6093800C80E00E9498630E94D60F7F
:1051A00020E030E04AEA52E40E94C77118162CF061
:1051B00080EF93E00E941C5E04C080EF93E00E94A9
:1051C000765E0E943C5481E080930F0219821A821D
:1051D0001B821C821D821E821F821886512C1986FA
:1051E0002CE32A873CE13B8746E44C87E12CF12CF9
:1051F00030E8C32E4FEBD42E812C912C540180919A
:10520000800C9091810CBC01882777FD8095982FA8
:105210000E946972162F072F782E692E262F372F9E
:10522000482F592FB701C6010E94C7718823C9F0C2
:105230002091880C3091890C40918A0C50918B0CF4
:10524000612F702F872D962D0E94C771582E551CE7
:105250005524551C442049F0552039F080910F0207
:10526000CDC01E2D0F2D7C2C6D2C0E946E6E6B01FF
:105270007C01DC01CB012D813E814F815885821B51
:10528000930BA40BB50BB7FD3BC0D701C6018851EA
:105290009C4FAF4FBF4F8D839E83AF83B8870E94D3
:1052A0008568EAE2F6E084911F019FEF291A390A26
:1052B000882321F00E94550DF101F5CF811491044E
:1052C000A104B104B9F0C501B4016854744F8F4F03
:1052D0009F4F6C197D098E099F0928EE33E040E04D
:1052E00050E00E940975CA01B9014AE050E00E94ED
:1052F000F00D03C08FE30E94550D8AE00E94550D0A
:10530000E7DE0E94C90E2090880C3090890CA09195
:105310008A0CAE87B0918B0CBD879101AD01612FD6
:10532000702F872D962D0E94ED709F778114910428
:10533000A104B10449F420E030E040E85FE30E94BA
:10534000C77187FF0BC008C020E030E040E050E4A8
:105350000E94E573181614F446015701552091F187
:1053600029813A814B815C81211531054105510527
:1053700041F0D701C601821B930BA40BB50BB7FDFF
:1053800021C091014E855D8569857A858B859C85D7
:105390000E94ED7020E030E040EC5FE30E94C771B6
:1053A00087FD5CCFD701C601805A9541AF4FBF4FF3
:1053B00089839A83AB83BC8329863A869E859B87A3
:1053C000AD85AC8780910F02882309F447CF811403
:1053D0009104A104B10429F4E12EF02EC72CD62C9F
:1053E0000ECFB8EBCB1ABBE0DB0AE108F108C81816
:1053F000D908EA08FB08F7FE31CFEECF2E960FB69C
:10540000F894DEBF0FBECDBFDF91CF911F910F91FA
:10541000FF90EF90DF90CF90BF90AF909F908F90D4
:105420007F906F905F904F903F902F9008952F92B4
:105430003F924F925F926F927F928F929F92AF9224
:10544000BF92CF92DF92EF92FF920F931F93CF9371
:10545000DF93CDB7DEB72A970FB6F894DEBF0FBE45
:10546000CDBF8091F60583FD02C183E50E94CA0F7E
:105470008C83811106C082E50E94CA0F882309F43B
:10548000F6C00E94D60F0E9436726739710514F07B
:1054900066E970E070937D0C60937C0C0E94E2637F
:1054A0000E94D60F20E030E040EA50E40E94E5730D
:1054B000181624F480EF93E00E94765E81E08093DA
:1054C0000F02809109048093EF03812C912C5401E9
:1054D000412C512C32011A861D822CE32E838CE143
:1054E0008F83E6E4E887D12CE12C50E8F52E6FEBB2
:1054F000C62E80917C0C90917D0CBC01882777FD95
:105500008095982F0E946972162F072F382E292E0A
:10551000262F372F482F592F6D2D7E2D8F2D9C2D07
:105520000E94C7718823D1F02091840C3091850CA2
:105530004091860C5091870C612F702F832D922DF6
:105540000E94C771881F8827881F8A87FC81FF23D4
:1055500049F0882339F080910F0289C01D2D0E2D4E
:105560003F2C2C2C0E946E6E6B017C01DC01CB0168
:1055700084199509A609B709B7FD0DC026013701A1
:1055800028EE420E23E0521E611C711C0E948568A9
:105590008AE00E94550D9CDD0E94C90E8091840C0A
:1055A0008987E091850CE983F091860CFA8320913C
:1055B000870C2B838A85882379F181149104A104B7
:1055C000B10441F0D701C60188199909AA09BB099C
:1055D000B7FD22C0298539814A815B816D817E8139
:1055E0008F8198850E94ED7020E030E040EC5FE311
:1055F0000E94C77187FDAFCF46015701E0E68E0ECE
:10560000EAEE9E1EA11CB11CF985FD8329812E8323
:105610008A818F83EB81E88780910F02882309F4C8
:105620009ACF80917C0C90917D0CFA85BC018827E3
:1056300077FD8095982FFF2379F00E946972298564
:1056400039814A815B810E94C77187FF84CFD12E47
:10565000E02EF32CC22C4DCF0E946972298539812E
:105660004A815B810E94E57318168CF374CF2A96E9
:105670000FB6F894DEBF0FBECDBFDF91CF911F9163
:105680000F91FF90EF90DF90CF90BF90AF909F90E1
:105690008F907F906F905F904F903F902F900895E4
:1056A000CF92DF92EF92FF921F93CF93DF9380E52B
:1056B0000E949C0F882309F445C00E940B106B01C7
:1056C0007C0183E50E94CA0F882321F00E940B1001
:1056D000EB0102C0CFEFDFEFCE010196039790F50B
:1056E000D7FC30C08C2DECE7F6E09491891751F18E
:1056F000319696E0E43AF907C1F70E94B35C1C2D9D
:1057000060E08C2D0E943A70CF3F8FEFD80759F49C
:105710008C2D0E94A87031E020E0892B09F030E048
:10572000C32FD22F04C0219751F4C1E0D0E0812FC4
:105730000E94A8708C179D0729F0CADCF8CFC0E042
:10574000D0E0F5CFDF91CF911F91FF90EF90DF90E8
:10575000CF9008952F923F924F925F926F927F92D7
:105760008F929F92AF92BF92CF92DF92EF92FF9271
:105770000F931F93CF93DF93CDB7DEB7E2970FB6AA
:10578000F894DEBF0FBECDBF9EA38DA3609129020A
:1057900070912A02882777FD8095982F0E94697260
:1057A00020912B0230912C0240912D0250912E021B
:1057B0000E9420742AE037ED43E25CE30E942074EB
:1057C0006FA378A789A79AA769A37AA38BA39CA3A1
:1057D000ADA1BEA14D905D906D907C902091E505AE
:1057E0003091E6054091E7055091E805C301B2010B
:1057F0000E94ED706BA77CA78DA79EA7EDA1FEA1CF
:10580000C480D580E680F7802091E9053091EA05D3
:105810004091EB055091EC05C701B6010E94ED7077
:105820004B015C0120E030E0A9016BA57CA58DA5B2
:105830009EA50E94C771811117C020E030E0A90128
:10584000C501B4010E94C77181110EC0E090090426
:105850008DA19EA10E94FE1E2DA13EA1245F3F4F5F
:105860008E010F5D1F4F23C1A3019201C301B2013D
:105870000E9420742B013C01A7019601C701B601CB
:105880000E9420749B01AC01C301B2010E94EE7022
:105890006B017C0120E030E44CE155E40E94E573AB
:1058A00087FD0FC120E838EF49EA57E4C701B60188
:1058B0000E94C77118160CF404C12091ED053091B7
:1058C000EE054091EF055091F005EDA1FEA1608538
:1058D0007185828593850E94ED702B013C0120919A
:1058E000F1053091F2054091F3055091F405ADA119
:1058F000BEA11C966D917D918D919C911F970E94E8
:10590000ED706FA778AB89AB9AAB2BA53CA54DA5E5
:105910005EA5CA01B9010E9420746B017C01A5013A
:105920009401C501B4010E9420749B01AC01C70120
:10593000B6010E94EE706B017C01A3019201C301CC
:10594000B2010E9420749B01AC01C701B6010E9404
:10595000EE700E948D746B017C012DEB37E346E8FD
:1059600055E30E94C77187FF06C0CFA4D8A8E9A855
:10597000FAA8E894F7F82DEB37E346E855E3C701BA
:10598000B6010E94C77187FD9CC02FA138A549A50B
:105990005AA5C701B6010E94CE712091070230912D
:1059A00008024091090250910A020E9420740E944C
:1059B0003B726FA378A789A79AA72FA038A420E0ED
:1059C00030E040E850E4C701B6010E9420746B014A
:1059D0007C01B10180E090E00E946772A70196010E
:1059E0000E94E57318162CF4C701B6010E943B72A1
:1059F0001B012114310419F422242394312CB10108
:105A000080E090E00E9467729B01AC0160E070E072
:105A100080E89FE30E94CE716B017C019B01AC0189
:105A20006BA57CA58DA59EA50E942074698B7A8BA1
:105A30008B8B9C8BA7019601C501B4010E94207439
:105A40006D8B7E8B8F8B988FA7019601C301B2015E
:105A50000E942074698F7A8F8B8F9C8FA70196018B
:105A60006FA578A989A99AA90E9420746D8F7E8F4D
:105A70008F8F98A380E1E5EEF5E0DE0111960190AD
:105A80000D928A95E1F7CE0181966C01FF24F39483
:105A9000B1E02B1A3108B9F4E09009048DA19EA160
:105AA0000E94FE1E2DA13EA1245F3F4F86014BEEBA
:105AB00053E067EE73E083EE93E00E94685180E06C
:105AC00066C081E064C08091C503811110C00E944E
:105AD0006E6E68537F4F8F4F9F4F6093600370933C
